:100000000C94E8040C9410050C9410050C94100545
:100010000C94E23B0C9410050C9410050C94100504
:100020000C9410050C941E3C0C94EA080C941005DA
:100030000C9410050C94C03C0C94F53C0C941005E9
:100040000C940E090C9410050C9410050C941005DA
:100050000C941005D318BA18BC18BE18C518D118BE
:10006000CB18CD180E26F625F825FA25FC25FE25F9
:1000700000260426062609260B261C2610261226F4
:10008000142618261A2616261E26BB2BE62BC12B55
:10009000C42BC82BCE2BD12BD62BDA2BDE2BE02B6F
:1000A000BB2BC42BC82BE22B77377A377F378437AB
:1000B00087378A378D379037963799379E37A137EC
:1000C000A637AD37B037B337B837BB37E837EA377D
:1000D000EF37F437F837FC37003804380A380C3873
:1000E000103816381B381F382138233829382D3856
:1000F0000A390C390E3912391239103916391439B6
:10010000000000000067582F00000000F567E6308F
:10011000010032000200E8030100320002002C015D
:1001200000000000000000000000000000000000CF
:10013000000000002ECA7E3BC24CA40B0C49701775
:100140000000000043BFA80E0000000080D566102C
:100150000000000080D0841F0000000031D5611035
:1001600000000000C0D665100000000080D46510BB
:100170000000000080D46510010032000200E80396
:100180000100320002002C010006080001FF0101FD
:1001900000000106090001FF0302010002060A0037
:1001A00001FF0000000006060E0000FF0302010030
:1001B00005060D0000FF0203000004060C0000FF0E
:1001C0000302010003060B0000FF040600000706FF
:1001D000070000FF03020100C70F11101A11436846
:1001E00065616C692D43686172676572206D007688
:1001F000302E33336D5F32303134313031320003E1
:100200000200006F7074696F6E73000100010001DD
:1002100000010001000A0064000100030008000959
:10022000000A000B000C0001000200040006000898
:10023000000A000C006D5600206E6F007965730097
:10024000496E66006D696E2E00756E6C696D69741D
:1002500000756E6C696D69746564009C029702920A
:10026000028D02880283027E02790274026F024EBE
:10027000695A6E004C343335004C343330004C69CD
:10028000706F004C696C6F004C69666500506220AD
:1002900020004E694D48004E69436400556E6B6EF8
:1002A0000000980898086C0710275802019808F475
:1002B000016C070100E001029808F4016C070100DD
:1002C000E001039808DC006C070600E001049808D0
:1002D00098086C070300780005980898086C0703D5
:1002E00000780006980898086C07030078000798C3
:1002F0000898086C070300780008980898086C07AD
:100300000300780009980898086C0703007800013A
:100310000001000100010000000100B0041C0752B0
:1003200003000008075203B0044006E80300000879
:1003300007E803D0079209D606000000006C07E426
:100340000C100ED007E40C0000B80B100E0410C403
:1003500009A60E0000AC0D740E6810B80B0A0F0051
:1003600000890C740ECC10B80B0A0F0000890C74B5
:100370000EFE10B80B0A0F0000890C40066C071423
:10038000054006000078054E616D653A00456469D8
:1003900074206E616D653A00E803E303DE03D90360
:1003A000D403CD03C103B703AC03000052657365EA
:1003B00074206E616D650045646974206E616D65C1
:1003C00000437265617465206E616D6500546C69EF
:1003D0006D3A200049643A200049633A200043689E
:1003E0003A2000563A2020004261743A202000430F
:1003F000616C2E6572722E2020463A002500202D59
:100400002D3A2D2D00202000200020002520005214
:1004100045564552534520504F4C4152495459007E
:10042000706C656173652063616C2E004E2F410016
:1004300064656C746120543D20004E2F410054656A
:1004400078743D0064656C746120563D20006D61D8
:1004500078566F75743D006E6F2064542F7400459C
:1004600072726F723A0054696D653A200070726F53
:100470006772616D20636F6D706C657465002D002F
:10048000546578743D005662616C2E3D00566F7560
:1004900074203D00206C696D69743D0056696E7072
:1004A00075743D00776972657320523D0062617416
:1004B000742E20523D0020200062200074696D657A
:1004C0003A2020202020004C696D6974733A200086
:1004D0006D4168003C20006D4120006D41200020EE
:1004E000202D2D20200043684342426C446946433E
:1004F0005374534243684469435963794368446978
:100500004650435045420064542F6474002D645695
:100510000056206C696D69740057264A265B26F5E3
:1005200026F02606275F275A278727E527B327B90E
:10053000271628AA282228B628B328C728000B0C7B
:100540000D0E0FED05CC05C0059E059105000007B9
:10055000080A0FED05CC059E05910500000001027B
:100560000304090FED05DE05D605CC05C0059E0583
:100570009105000000010203040506090FED05DEE8
:1005800005D605CC05C005B805A9059E0591050051
:100590000065646974206261747465727900443E18
:1005A0004320666F726D61740073746F726167656A
:1005B0002B62616C616E630073746F7261676500BA
:1005C0006661737420636861726765006469736350
:1005D00068617267650062616C616E636500636883
:1005E000617267652B62616C616E6365006368614F
:1005F000726765000106070F050002120607090A67
:100600000D0E0F04050002120607090A0D0E0F0455
:10061000051303000607040F050002120607090A66
:100620000D0E0F04051303000212110D0E0F040529
:1006300013030002120C10110D0E0F04051303001A
:100640004558542054206C696D69740054696D6577
:10065000206C696D697400434150206C696D697448
:1006600000494E5055542056004857204641494CA9
:10067000555245004F5645524C4F414420657272C9
:100680000042414C20627265616B0042415420641B
:100690006973630020436F6E6E65637420426174FA
:1006A0007465727900436F6E6E6563742042617485
:1006B00074657279210008090A0001E706DF06D790
:1006C00006CF06C7060000566D696E75733A005670
:1006D000706C75733A200056623270696E3A00563B
:1006E000623170696E3A0056623070696E3A00FC91
:1006F00006F506000076616C75653A0074656D70EC
:100700003A2000120709070000706F696E742032EA
:100710002E00706F696E7420312E002907210700AA
:1007200000444154413A20200076616C75653A20BE
:100730000032002C013200E8034B07450700005748
:1007400007500700003330306D410035306D4100F7
:10075000313030306D410035306D410006090A0BF3
:100760000C0D0E061F20212223241312B007AA0706
:10077000A4079E07980792078C078607800700004A
:10078000566F75743A0056312D363A005662363A35
:1007900020005662353A20005662343A20005662F4
:1007A000333A20005662323A20005662313A200035
:1007B00056696E3A20000008F707EB07DF07D307FA
:1007C000C40700006578706572742044414E474547
:1007D00052210063616C69622D3E55415254007490
:1007E000656D702065787465726E00492064697368
:1007F00063686172676500492063686172676500BC
:10080000766F6C746167650028081E081008000088
:1008100072657365742064656661756C74006361EC
:100820006C6962726174650073657474696E677374
:100830000080250000004B00000096000000E10051
:100840000000C20100460088137017000070176492
:1008500000010005000F0005001E0001000A0078DD
:1008600000581B000001000100080000000000000B
:100870000000000000432F6D00A2089B0895088C23
:100880000883086578742E20416463006578742EAF
:1008900020646562006465627567006E6F726D61E9
:1008A0006C0064697361626C6564008E0983097C05
:1008B00009700966095C095009440938092B0921A6
:1008C0000916090D090109F508EB08E408DC08D34D
:1008D00008000020202072657365740073706565E0
:1008E000643A2000554152543A200062616C2E2037
:1008F0006572723A00666F7263652062616C3A20BD
:10090000006469732061677265733A2000646973DB
:100910006368202B3A00696E707574206C6F773AAB
:100920000063617020434F66663A006D696E2E4920
:100930002049203D20492F00626565703A20202023
:1009400020202000776173746520542E3A20200007
:10095000442F43206379636C65733A004E694364A6
:10096000202D64563A004E694D48202D64563A00B9
:10097000656E6162202D64563A20200064542F6415
:10098000743A00657874726E2054434F3A0065786B
:1009900074726E20543A20202000141719181A0778
:1009A00005061F20212223247265736574696E6712
:1009B00020656570726F6D3A00763A20382E3531B9
:1009C0002E3536200000A605361321262F2C2C3E6E
:1009D00011241FBECFE5D8E0DEBFCDBF10E0A0E6FA
:1009E000B0E0E8EDFFE702C005900D92AC3EB10724
:1009F000D9F714E0ACEEB0E001C01D92A53FB107FD
:100A0000E1F719E0C0EDD9E004C02297FE010E9491
:100A1000663FC63CD107C9F70E9431130C94EA3FE8
:100A20000C94000086B380958170B19B02C090E069
:100A300001C092E0892BB29B02C090E001C094E01B
:100A4000892BB39B02C090E001C098E0892B0895E8
:100A5000882339F0A69AA79AD59A889A8A9A8F9A63
:100A60000895A698A798D59888988A988F980895F9
:100A70008091F300882331F08091EC008F5F8093A8
:100A8000EC0002C01092EC008091F3008A3010F468
:100A900080E001C088E09091F300943108F084E098
:100AA0009091F3009E3108F082E09091EC00982341
:100AB00011F0C49A0895C49808952091A403309128
:100AC000A503232B11F08093F3000895811102C038
:100AD000939A08959398089587B18F7387B98B9AE5
:100AE0008D9AD79ABC9A8C9A8D9A8E9A80E00E94A1
:100AF000660580E00E945D0520E042E060E18DEE49
:100B000090E00E94BF190E94A13C0C94570880FFFE
:100B100002C0AE9A01C0AE9881FF02C0AF9A01C078
:100B2000AF9882FF02C0DD9A01C0DD9883FF02C04A
:100B3000909A01C0909884FF02C0929A01C0929846
:100B400085FF02C0979A0895979808958DEE90E0DA
:100B50000C94101A2FB7F89480910301909104011E
:100B6000A0910501B09106012FBF892F9A2FAB2FBD
:100B7000BB27A7FDBA9508952FB7F89410920C01E2
:100B800010920B018617970768F480E090E4A0E0CC
:100B9000B0E08093030190930401A0930501B0930A
:100BA000060108C010920301109204011092050181
:100BB000109206018091030190910401A09105011A
:100BC000B0910601BA2FA92F982F8827809303018F
:100BD00090930401A0930501B093060181E08093F6
:100BE00002012FBF0895CF93DF93EC01C13080E65F
:100BF000D80758F4C13080E4D80748F48EE00E944A
:100C0000B53C9598BE018DE009C0C0E0D0E68DE00E
:100C10000E94B53C949ABE0170548EE0DF91CF9152
:100C20000C948B3CEF92FF920F931F93CF93DF9323
:100C3000EC018B016CED79E680E00E94900B7C0169
:100C4000CE0144E0969587954A95E1F79093FF0091
:100C50008093FE0080918003909181030E94851112
:100C60009093F8008093F70086E10E94B609809384
:100C7000F4008FB7F894D0930C01C0930B01F0925D
:100C80000A01E092090110930801009307018FBF48
:100C9000DF91CF911F910F91FF90EF9008958823DE
:100CA00049F080E00E945C06DF981092FD001092EF
:100CB000FC000895DF9AF9CFCF93DF93C82F8823E4
:100CC00019F080E00E944F06DFB7F8948DE00E9493
:100CD000B53C94988EE00E94B53C95981092020124
:100CE000DFBFC11102C0969A0BC0969880E00E94A7
:100CF000B609EC0186E00E94B609BE010E94BC055F
:100D00001092FD001092FC001092FB001092FA006D
:100D10001092F900DF91CF910895BC018EE00C9400
:100D20008B3CCF92DF92EF92FF92CF93DF93809133
:100D30000201811102C0CF99B3C180E00E94BF09B6
:100D40002091090130910A012817390730F480E019
:100D50000E945C0610920201A3C180910001909153
:100D60000101019690930101809300018E3591401D
:100D700008F473C010920101109200011092F60065
:100D80001092F500209171028091F900821780F491
:100D90002093F9008091FC009091FD009093FB005E
:100DA0008093FA0081E090E09093FF008093FE0032
:100DB0008091F9002817B8F42093F9008091FA0087
:100DC0009091FB009093FD008093FC0080910B01BB
:100DD00090910C0174E0969587957A95E1F7909340
:100DE000FF008093FE00C0E08091F400C81700F57A
:100DF0008FE18C0F0E94B6092091F7003091F80026
:100E0000CF9B03C0821B930B04C0A901481B590B45
:100E1000CA011816190654F42091F5003091F60015
:100E2000280F391F3093F6002093F500CF5FDCCFF9
:100E30002091F5003091F6008091FC009091FD002A
:100E40002115310519F0820F931F03C0009729F077
:100E500001979093FD008093FC00CF9B02C082E03D
:100E600001C083E00E94BF09EC0180E00E94BF093D
:100E70006C01E12CF12C81E00E94BF09C81AD90A4B
:100E8000E108F1088091FC009091FD00CF9B0FC01C
:100E90002091070130910801B701A601421B530BB5
:100EA00061097109480F591F611D711D0EC04091E4
:100EB00007015091080160E070E04C195D096E096E
:100EC0007F09481B590B6109710980910B019091B1
:100ED0000C01480F591F611D711D6E01E12CF12C91
:100EE000C416D506E606F7060CF4EA0160910B017C
:100EF00070910C0180E090E0C090FE00D090FF0067
:100F0000EE24D7FCE094FE2C6C1B7D0B810991092B
:100F1000C616D706E806F90614F4C701B6012091F3
:100F20000201222309F45DC0C0900301D0900401A6
:100F3000E0900501F0900601DC01CB0162E0880F32
:100F4000991FAA1FBB1F6A95D1F7C80ED91EEA1EAA
:100F5000FB1EC0920301D0920401E0920501F092C1
:100F600006018091030190910401A0910501B091C7
:100F70000601B7FF08C010920301109204011092FD
:100F80000501109206018091030190910401A09146
:100F90000501B09106010197A046B10560F080E01F
:100FA00090E0A0E6B0E08093030190930401A09349
:100FB0000501B09306018091030190910401A09175
:100FC0000501B0910601892F9A2FAB2FBB27A7FDF2
:100FD000BA95DF91CF91FF90EF90DF90CF900C9476
:100FE000F305CF995DC0C0900301D0900401E0905B
:100FF0000501F090060128E030E040E050E00E945A
:10100000453FC20ED31EE41EF51EC0920301D092CE
:101010000401E0920501F092060180910301909194
:101020000401A0910501B0910601B7FF08C010921C
:1010300003011092040110920501109206014091E3
:1010400003015091040160910501709106018091A6
:101050000B0190910C01A0E0B0E084179507A60762
:10106000B70774F480910B0190910C01A0E0B0E0FF
:101070008093030190930401A0930501B0930601AE
:101080008091030190910401A0910501B0910601A6
:10109000DF91CF91FF90EF90DF90CF900C948D0671
:1010A000DF91CF91FF90EF90DF90CF900895DE9881
:1010B000D698BD9ABE9ABF9A80B7806680BF8FEAE5
:1010C00086B910920D010C94123CCF9387FD15C088
:1010D000C8B320E28202C0011124CF71C82B88B3AB
:1010E0008F71806C88BBD69A8AE090E00E94D63ED1
:1010F0008FB7F894C8BBD6988FBFCF91089594B19D
:1011000035B12FB7F89445E0849FF0011124E657DC
:10111000FE4FE491F0E0EE0FFF1FEC51FE4F892FE0
:1011200090E0932B918380832FBF089510920D013F
:1011300008950E94032990930302809302020E9463
:10114000702990930502809304020C94790CE0912D
:101150000D01EF5FE03108F0E0E085E0E89FF0018D
:101160001124E857FE4F84912091B4033091B503C8
:10117000232B19F0873009F486E00C946508CF938F
:10118000C0910D018C2F0E947F08E1E0EC0FE0314F
:1011900008F0E0E0E0930D0185E0E89FF001112404
:1011A000E757FE4FE491E062E7B9E0910D0185E079
:1011B000E89FF0011124E557FE4FE491E1110E94F0
:1011C000910680910D01811103C0CF910C94990873
:1011D000CF9108951F920F920FB60F9211242F9363
:1011E0003F934F935F936F937F938F939F93AF93AF
:1011F000BF93EF93FF930E94A708FF91EF91BF91D8
:10120000AF919F918F917F916F915F914F913F919E
:101210002F910F900FBE0F901F9018951F920F9255
:101220000FB60F9211242F933F934F935F936F93B9
:101230007F938F939F93AF93BF93EF93FF930E94FE
:10124000BF08FF91EF91BF91AF919F918F917F91D7
:101250006F915F914F913F912F910F900FBE0F9023
:101260001F9018952FB7F89460910E0170910F019F
:1012700080911001909111012FBF08950E948F2F2E
:101280000E94C13A0E94EB290E941A390C94290F3E
:1012900080910E0190910F01A0911001B091110168
:1012A0000196A11DB11D80930E0190930F01A09393
:1012B0001001B093110180916600815019F0809364
:1012C0006600089581EE809366000E94600C0C9485
:1012D00044250E94320996958795779567950895DC
:1012E000CF92DF92EF92FF92CF93DF93EC010E94B7
:1012F00069096B017C01CC0EDD1EE11CF11C0E9412
:1013000069096C157D058E059F05C8F3DF91CF91A6
:10131000FF90EF90DF90CF900895CF92DF92EF9201
:10132000FF92CF93DF93EC010E9469096B017C016E
:10133000CC0EDD1EE11CF11C0E9469096C157D05B7
:101340008E059F0518F40E943E09F6CFDF91CF91DC
:10135000FF90EF90DF90CF900895E82FF0E0EE0F30
:10136000FF1FEE53FE4F808191810895E82FF0E03A
:10137000EE0FFF1FE858FE4F8081918108952FB72F
:10138000F894E82FF0E0EE0FFF1FEC51FE4F808144
:1013900091812FBF089580914C02089580912C0176
:1013A00090912D01089580911A0190911B0108954B
:1013B00080911C0190911D010895E82FF0E0EE0F3F
:1013C000FF1FE25DFE4F808191810895262F6131DC
:1013D00010F4423040F021E030E0FC0133832283FE
:1013E00031832083089550E0BA01620F711D620FAE
:1013F000711D660F771F660F771F665F7F4F44E092
:1014000050E00C94A53F282FCA01213188F46230A6
:1014100078F470E0620F711D620F711D660F771F07
:10142000660F771F665F7F4F44E050E00C94C33F28
:101430000895FF920F931F93CF93DF9300D000D0B6
:10144000CDB7DEB700E011E0F12CF80145915591E0
:101450006591749149835A836B837C83AE014F5F9E
:101460005F4F60E08F2D0E94030AF801349645918A
:1014700055916591749149835A836B837C83AE0146
:101480004F5F5F4F61E08F2D0E94030AF394085F66
:101490001F4F81E1F812D9CF0F900F900F900F904E
:1014A000DF91CF911F910F91FF9008958091A0013E
:1014B0009091A10108958091A6019091A7010895AE
:1014C0008091560190915701039750F080915C01F3
:1014D00090915D01039720F083E090E00C944B1015
:1014E00080E008958FB7F894E6E0F2E0119211924F
:1014F0001192119292E0EA34F907C1F710924B026F
:1015000010924A028FBF0895CF93CFB7F8941092EC
:101510002B0110922A01109226011092270110929D
:101520002801109229011092220110922301109299
:1015300024011092250110921E0110921F01109299
:101540002001109221010E94690960931601709395
:1015500017018093180190931901CFBFCF9108957F
:10156000CF93DF930E94720A0E94840AC0912C01DB
:10157000D0912D0180912C0190912D01C817D90790
:1015800029F48AE090E00E948D09F4CFDF91CF9199
:1015900008950E94840A10921D0110921C0110925D
:1015A0001B0110921A010895EEE2F1E011921192DE
:1015B00081E0E837F807D1F708950E94720A0C9489
:1015C000840A8FB7F89410921201109213011092AE
:1015D0001401109215018FBF10922D0110922C0151
:1015E0000E9496080E94DD0A0E94C90AE8E7F1E01D
:1015F0001192119281E0E23CF807D1F708958091B1
:101600004C0281110AC081E00E9466050E94E10A35
:1016100081E080934C020C94B00A089510924C0221
:1016200080E00C946605CF93DF9381E00E94BF09B0
:10163000EC0180E00E94BF098C179D0718F4C81BBD
:10164000D90B02C0C0E0D0E081E0C93ED34008F42D
:1016500080E0DF91CF9108958F929F92AF92BF92D9
:10166000CF92DF92EF92FF92CF93DF93CDB7DEB7A9
:1016700028970FB6F894DEBF0FBECDBFF82E5B01E2
:1016800061157105D1F140E0682FCE0105960E94E9
:10169000E60941E06F2DCE0101960E94E6092B81FB
:1016A0003C8140E050E0CF80D884E12CF12C2C1913
:1016B0003D094E095F09B50180E090E08D809E8074
:1016C000A12CB12C681979098A099B090E94F33E63
:1016D00029813A8140E050E0281939094A095B091B
:1016E0000E94453F2C0D3D1D4E1D5F1D57FF03C041
:1016F00020E030E0A901C90102C080E090E0289616
:101700000FB6F894DEBF0FBECDBFDF91CF91FF9033
:10171000EF90DF90CF90BF90AF909F908F90089503
:101720008F929F92AF92BF92CF92DF92EF92FF92F1
:10173000CF93DF93CDB7DEB728970FB6F894DEBF0F
:101740000FBECDBFF82E5B0161157105D1F140E0F0
:10175000682FCE0105960E94E60941E06F2DCE016B
:1017600001960E94E60929813A8140E050E0CD804F
:10177000DE80E12CF12C2C193D094E095F09B501E1
:1017800080E090E08F809884A12CB12C68197909B1
:101790008A099B090E94F33E2B813C8140E050E086
:1017A000281939094A095B090E94453F2C0D3D1D46
:1017B0004E1D5F1D57FF03C020E030E0A901C901A5
:1017C00002C080E090E028960FB6F894DEBF0FBE0E
:1017D000CDBFDF91CF91FF90EF90DF90CF90BF9082
:1017E000AF909F908F9008950C94E10A82508931B8
:1017F00030F4E82FF0E0E758FF4F8081089581E052
:101800000895CF93DF93E82FF0E0EE0FFF1FE85825
:10181000FE4FC081D1810E94F60B882319F08130E0
:1018200029F00AC081E0E39740F404C081E0C935A3
:10183000D24018F480E001C081E0DF91CF9108959B
:10184000CF93C0E08FE18C0F0E94010C882329F018
:10185000CF5FC630B9F786E001C08C2FCF910895D5
:101860001F93CF93DF931F92CDB7DEB7182F6983F5
:101870000E94F60BE12FF0E0EE0FFF1FE858FE4F3D
:101880004981682F808191810F90DF91CF911F91C5
:101890000C94A8182FB7F89460911201709113015D
:1018A00080911401909115012FBF2DE730E040E0A9
:1018B00050E00E94233FBB27A52F942F832F08952C
:1018C0002091A6013091A7018091120190911301FE
:1018D000A0911401B0911501820F931FA11DB11D9C
:1018E0008093120190931301A0931401B0931501FA
:1018F0000895CF93DF9380914C02882309F474C03C
:1019000020914A0230914B0224363105E0F4E4EE96
:10191000F1E0C6E0D2E04191519188819981AA819C
:10192000BB81840F951FA11DB11D89939993A99324
:10193000B99382E0E630F80771F72F5F3F4F30939D
:101940004B0220934A022091E4013091E5018091FD
:10195000260190912701A0912801B0912901820FC1
:10196000931FA11DB11D8093260190932701A09381
:101970002801B09329012091E6013091E70180917F
:10198000220190912301A0912401B0912501820FA1
:10199000931FA11DB11D8093220190932301A09359
:1019A0002401B09325012091F2013091F30180913F
:1019B0001E0190911F01A0912001B0912101820F81
:1019C000931FA11DB11D80931E0190931F01A09331
:1019D0002001B093210180912A0190912B01019661
:1019E00090932B0180932A01DF91CF91089590E08D
:1019F000880F991FFC01E858FE4F20813181621742
:101A0000730718F4261B370B04C0AB01421B530BA2
:101A10009A01FC01E25DFE4F2730310518F011827A
:101A2000108206C0208131812F5F3F4F3183208398
:101A3000FC01E858FE4F718360830895AF92BF9216
:101A4000CF92DF92EF92FF920F931F93CF93DF938A
:101A50001F92CDB7DEB7A0907801B0907901809148
:101A60007A0190917B018A159B0518F4A81AB90A8E
:101A700002C0A12CB12CB50182E10E94F70C20918B
:101A800088013091890180918A0190918B010091A8
:101A90008C0110918D012817390720F4BC01621BBD
:101AA000730B02C060E070E08017910718F4081B08
:101AB000190B02C000E010E08FE10E94F70CB801A2
:101AC00080E20E94F70C0EE811E091E2F8016191CA
:101AD00071918F01892F99830E94F70C99819F5FE3
:101AE0009532A1F70E94200CF82E80E000E010E073
:101AF0008F1569F0EFE1E80FF0E0EE0FFF1FE858F7
:101B0000FE4F20813181020F131F8F5FF1CFB8018B
:101B100083E10E94F70C0115110581F00A151B05E0
:101B200020F49501201B310B03C098012A193B09B1
:101B3000293E334018F4580113E102C012E1F12CA0
:101B4000B50184E10E94F70C6F2D70E086E10E94E0
:101B5000F70C612F70E085E10E94F70C0E944A0C9F
:101B60008C010E946A29882329F0E0907E01F09080
:101B70007F010BC00E94FD28882329F0E0907C01A2
:101B8000F0907D0102C0E12CF12CB70187E10E94A9
:101B9000F70CB80189E10E94F70C9701D5010E946A
:101BA000DD3E30E1C32E37E2D32EE12CF12CA7012C
:101BB00096010E94233FB90188E10E94F70C980129
:101BC000D5010E94DD3EA70196010E94233FB90185
:101BD0008AE10F90DF91CF911F910F91FF90EF90CD
:101BE000DF90CF90BF90AF900C94F70CBF92CF9244
:101BF000DF92EF92FF920F931F93CF93DF932FB754
:101C0000F89480914A0290914B022FBF843691053F
:101C1000C1F580912C0190912D01019690932D0199
:101C200080932C0106E012E0C2ECD1E0B12C54E626
:101C3000C52ED12CE12CF12CF8016191719181918B
:101C400091918F01A70196010E94233F2993399317
:101C5000B9018B2D0E942C0BBC018B2D0E94F70C1F
:101C6000B394F1E1BF12E8CF0E941E0DDF91CF9136
:101C70001F910F91FF90EF90DF90CF90BF900C9449
:101C8000720ADF91CF911F910F91FF90EF90DF903B
:101C9000CF90BF9008954F925F926F927F928F92F4
:101CA0009F92AF92BF92CF92DF92EF92FF920F93EB
:101CB0001F93CF93DF93CDB7DEB728970FB6F89475
:101CC000DEBF0FBECDBF0E946909C0901601D09043
:101CD0001701E0901801F09019016C197D098E0927
:101CE0009F09613375478105910508F49BC02FB7A3
:101CF000F89400912A0110912B01409026015090F8
:101D00002701609028017090290160912201709153
:101D10002301809124019091250180901E019090D3
:101D20001F01A0902001B09021012FBF6D837E8301
:101D30008F8398870E94840A20911C0130911D0195
:101D40002F5F3F4F30931D0120931C016801E12C50
:101D5000F12C6D817E818F819885A70196010E946B
:101D6000233F29833A834B835C83C301B201A701DC
:101D700096010E94233FB90180E00E942C0B3C0198
:101D800069817A8181E00E942C0B8615970518F4F1
:101D9000681A790A02C0612C712C4090B0015090F1
:101DA000B1016414750420F0B3018CE10E94F70CBA
:101DB000B301641975098BE10E94F70CC501B401E8
:101DC000A70196010E94233FB90187E00E942C0BD6
:101DD00020911A0130911B0190931B0180931A01ED
:101DE000BC01621B730B660F771F8DE10E94F70C1D
:101DF000B8018EE128960FB6F894DEBF0FBECDBFB6
:101E0000DF91CF911F910F91FF90EF90DF90CF90D6
:101E1000BF90AF909F908F907F906F905F904F900A
:101E20000C94F70C28960FB6F894DEBF0FBECDBF0A
:101E3000DF91CF911F910F91FF90EF90DF90CF90A6
:101E4000BF90AF909F908F907F906F905F904F90DA
:101E500008950E94F60D0C944B0E109212011092F0
:101E6000130110921401109215010C94DD0A809157
:101E70007302089580917102811113C00E94CB09F1
:101E8000882381F00E94CE0920914D0230914E02AC
:101E9000821B930B9C0181E02530310518F080E016
:101EA000089581E00895815E0C94B6090F931F9305
:101EB000CF93DF9310E0CFEFDFEF00E0809173026C
:101EC000181760F4812F0E94530F8C179D0710F094
:101ED000CE0101C0012F1F5FEC01F0CF802FDF91F9
:101EE000CF911F910F910895CF93DF93909171023D
:101EF000911104C0DF91CF910C94530F9091570230
:101F0000C82FD0E0992391F00E94530FCC0FDD1F12
:101F1000FE01E85AFD4FCC59DD4F208131814881C7
:101F20005981241B350B280F391F07C0FE01EE0F06
:101F3000FF1FE85AFD4F20813181C901DF91CF9108
:101F40000895CF93C82F80917102882341F0C11169
:101F500006C00E94CE0990934E0280934D02C0931A
:101F600071020E94690960934F027093500280933E
:101F70005102909352020E94D40A80917002811102
:101F800004C08C2FCF910C948705CF910895EF92C8
:101F9000FF920F931F93CF93DF9381E00E94280558
:101FA00086E10E94B6098093730204E612E038E5E8
:101FB000E32E32E0F32EC0E0D0E08091730290E097
:101FC000C817D9076CF48C2F0E94530FF801819326
:101FD00091938F01F701819391937F012196EDCF2A
:101FE000109271021092700280E00E94A10F109274
:101FF0004E0210924D0210924F0210925002109217
:10200000510210925202DF91CF911F910F91FF90D8
:10201000EF90089580E00E94A10F81E0809370020C
:1020200008950E940A1080E00C942805FF920F93F7
:102030001F93CF93DF93809172020E94740FEC0183
:10204000F12C01E010E080917302F816E8F48F2D76
:102050000E94740FAC0180917102802321F0C4179B
:10206000D50778F40DC02091B2033091B3032F5FF0
:102070003F4F369527952C0F3D1F2417350708F441
:10208000102B000FF394DFCF812FDF91CF911F91A1
:102090000F91FF9008951F93CF93DF93EC0110E011
:1020A00080917302181748F48FE1810F0E94DD09B7
:1020B0008C179D0720F01F5FF3CF81E001C080E007
:1020C000DF91CF911F910895BF92CF92DF92EF924F
:1020D000FF920F931F93CF93DF938AE090E00E94CB
:1020E0004B10882309F462C00E94560F809372023D
:1020F0000E94530F8C0162E083E892E00E94101C62
:102100000817190748F178E5E72E72E0F72EE4E6A4
:10211000CE2EE2E0DE2EC0E0D0E0BB24B39480916E
:10212000730290E0C817D907CCF48C2F0E94530F8C
:10213000F701819391937F01F601819391936F0150
:10214000801B910B2091B2033091B30328173907FC
:1021500008F4B12C2196E3CFBB24B394109257021C
:102160000E94690960935302709354028093550250
:1021700090935602BB2059F0DF91CF911F910F91A0
:10218000FF90EF90DF90CF90BF900C940A101092C8
:1021900070020E941610DF91CF911F910F91FF9056
:1021A000EF90DF90CF90BF900C94A10FDF91CF9173
:1021B0001F910F91FF90EF90DF90CF90BF90089507
:1021C000CF9380915702811119C081E0809357020B
:1021D000809172020E94530FC0E080917302C81771
:1021E00068F48C2F0E94530FEC2FF0E0EE0FFF1FCE
:1021F000EC59FD4F91838083CF5FEFCFCF9108954E
:102200000F931F930E946909009153021091540289
:102210002091550230915602601B710B820B930B7B
:1022200028EE33E040E050E00E94233FC9011F91B7
:102230000F91089583E090E00E944B108823C9F02D
:1022400080917102811103C00E94641012C00E942B
:10225000E0100E94161090E08095909520917102F8
:1022600030E082239323892B81F40E9400114F9741
:1022700060F40E943A0F882311F082E00895809163
:1022800070028823D1F381E0089580E00E94A10FBD
:10229000F0CF1F93CF93DF93EC0110E08091730296
:1022A000181780F4812F0E94530F8C179D0710F090
:1022B00081E009C0812F0E94740F8C179D07C0F721
:1022C0001F5FECCF80E0DF91CF911F9108951F93A6
:1022D000CF93DF93EC0110E080917302181780F424
:1022E000812F0E94530FC817D90710F081E009C051
:1022F000812F0E94740FC817D907C0F71F5FECCF5A
:1023000080E0DF91CF911F91089560917302662361
:1023100029F070E00E940F3FCB01089580E090E02B
:1023200008950E94CE140E94D72280E00E94660584
:1023300085E00E9455380E946C2F88E00E94553835
:1023400081E00C9466050E94CE140E94E52286E08E
:102350000E9455380E946C2F88E00C945538E0910B
:102360007402F09175028591949110927602FC01AD
:102370000994E0917402F0917502329685919491DE
:10238000FC010994E0917402F091750234968591F4
:102390009491FC010994CF93DF931F92CDB7DEB7E0
:1023A000811109C00E94EF210E94B9110E940E0BF9
:1023B0000E94A3110FC0813059F469830E94EF215C
:1023C0000E94B9116981611105C00E94911102C07A
:1023D00081E001C080E00F90DF91CF9108958F924E
:1023E0009F92AF92BF92CF92DF92EF92FF920F93A4
:1023F0001F93CF93DF93EC01A62E0E94AF110E9492
:10240000D1210E94912F0E94CE14D12C82E0C82E9F
:10241000E12CF12CBB24B39492E0992E8824839470
:102420000E943438811106C0FE01ED0DF11D84912A
:102430000E94E7250E945C14182F883051F40E94F6
:102440002D14811194C080917602823009F092C0DF
:102450008EC080917602813021F4111102C09092D9
:10246000760280917602823009F052C0FE01ED0DB5
:10247000F11DE491E23031F0E330A1F1E13009F0F7
:1024800044C035C0CF9915C0123019F46FEF7FEFFB
:1024900004C0143071F461E070E083E892E00E94BF
:1024A000641D609188027091890281E090E00E9431
:1024B000412786993FC0123019F46FEF7FEF04C0B7
:1024C0001430C1F561E070E083E892E00E944B1D9A
:1024D000609186027091870241E081E090E00E9465
:1024E000662728C0869B49C0CF9B47C023C01230B7
:1024F00019F46FEF7FEF04C01430E1F461E070E095
:1025000083E892E00E948D1D15C01092760212C0E1
:10251000143049F4ED2DF0E03196EC0FFD1FE491FD
:10252000E11143C007C0123029F4DD2019F00E94E8
:10253000AB23DA94BB2081F00E94AC2FC82E6A2D09
:102540000E94CB11B82E882339F00E94CE09E816DC
:10255000F906A9F5B11003C0A1103CC0B12C11308F
:1025600009F05ECF0E94EF210E94B91133C0109292
:10257000760277CF8092760274CF123041F40AE06F
:1025800020E030E048EE5DEF6FEF7FEF09C01430E0
:1025900089F60AE020E030E048EE5DEF61E070E0AF
:1025A00086E893E00E94FF2EC5CF81E0C81203C0E9
:1025B00081E00E9466050E94AB23D394BBCF0E94AA
:1025C000CE097C010E94C211C82E6A2D0E94CB1137
:1025D000B82EC0CF8C2DDF91CF911F910F91FF901E
:1025E000EF90DF90CF90BF90AF909F908F90089525
:1025F00060E087E792E00E943E1B87FD0AC08111E0
:1026000002C00C947835992787FD909501970C941A
:10261000F12B089578940E946C050E94063C0E945C
:102620005D290E94E2290E94F40B0E94683E0E94EC
:10263000B9356FEE71E08EED91E00E94BA2288EE1E
:1026400093E00E94700980E00E94903B0E942E1847
:102650008091B8039091B903079710F40C94332339
:1026600008950E940A130E94F812FDCF6FEF71E0E7
:1026700087E792E00E94501A86E990E090937802F2
:1026800080937702EBE7F2E08081805E808308959B
:10269000FC0124812052621710F40C94431A862FF7
:1026A00090E0821B91090E94D71C6EE00C941116D9
:1026B000CF93DF93EC010E94C6148B819C810E9412
:1026C0000E160E94CA146A8188819981DF91CF9188
:1026D0000C94A615FC0187818F3118F48F5F8783D6
:1026E000089586818F5F86830895FC018781882302
:1026F00019F08150878308958681815086830895DB
:102700000F931F93CF93DF93FC01C681D0E06D2F11
:1027100080E00E94C01410E11C0F01E00C0F8C2F10
:102720000E945F16011711F0C02FF7CFDF5FD23084
:1027300011F0C12FECCFDF91CF911F910F91089530
:102740001F93CF93DF93EC018DEE90E00E948319ED
:102750001FEF8E81181721F0CE010E9480131E8179
:102760008F81682F70E094E0759567959A95E1F7F1
:102770008F700E94C0140E945C14823049F0843033
:1027800019F0813049F413C0CE010E946A13E1CFE1
:10279000CE010E947513DDCF8830D9F68D81E88196
:1027A000F981E80FF11D8F819E81890F8083DF9170
:1027B000CF911F910895FC0171836083428334831C
:1027C0002383158280E2868317820895CF93DF9357
:1027D000EC018DEE90E00E9483190E94CE14CE0190
:1027E0000E94581361E08D810E94C0140E945C1405
:1027F0008230B1F0843041F08130C1F48DEE90E050
:102800000E947C1980E026C04D81242F30E08A810F
:1028100090E00197281739072CF74F5F4D83E2CFDF
:102820008D818823F9F281508D83DCCF8830D1F6F9
:1028300082E00E94AF14823048F083E00E94553855
:102840008DEE90E00E947C1981E004C0CE010E94D0
:10285000A013C3CFDF91CF91089580918102089595
:102860000C941205E0918102F0E0EE0FFF1FE55F8E
:10287000FD4F859194910895CF93DF93D82F0E94B7
:102880001205C82F8D1741F082E390E00E948D0958
:102890000E941205DC2FF5CF109281021092800267
:1028A00080938202882319F080E00E946238809130
:1028B0008202DF91CF910895FF920F931F93CF93E0
:1028C000DF93C0E0D0E0F12C0AEF10E040918102EC
:1028D000242F30E0F901EE0FFF1FE95DFD4F6591F8
:1028E0007491C8010E940F3F6F5F7F4FF901EE0F97
:1028F000FF1FC617D707A8F40E941205F82E81E023
:1029000090E00E948D0980918202F81641F08F2D8F
:10291000DF91CF911F910F91FF900C943C14219661
:10292000D5CFFF20A1F0209180022F5F209380025D
:10293000E75EFD4F8591949130E02817390738F014
:10294000463018F44F5F40938102109280028091CC
:102950008202DF91CF911F910F91FF900895CF9345
:10296000DF93D82FC09182020E945C149091810263
:102970009D1711F08C17C1F3892FDF91CF91089526
:10298000462F682F8DEE90E00C94471960E080E0B0
:102990000C94C01461E080E00C94C0148DEE90E0C3
:1029A0000C944019CF93DF93FC01DB018C918823B9
:1029B00089F0C081D1814883808191810196918382
:1029C00080838C9181508C93882321F00190F08139
:1029D000E02D1082DF91CF910895BF92CF92DF92C8
:1029E000EF92FF920F931F93CF93DF93EC018B0134
:1029F0007A014115510501F1CA010E947E3FF8019B
:102A00009081B82E981708F4B92ECB2CD12CA601A2
:102A1000B701888199810E94873F288139812C0DD7
:102A20003D1D39832883F80180818B198083882399
:102A300019F0E881F9811082DF91CF911F910F91F8
:102A4000FF90EF90DF90CF90BF900895CF92DF92EC
:102A5000FF920F931F93CF93DF9300D0CDB7DEB7D4
:102A60006C018B01BA0180E090E049835A830E9497
:102A7000AD2EF82ED8018C9149815A818F1570F4B2
:102A80004FE3B801C6010F900F90DF91CF911F91D6
:102A90000F91FF90DF90CF900C94D214F60120811B
:102AA00031812F0D311D31832083D8018C918F19F5
:102AB0008C93882321F00190F081E02D1082F901A0
:102AC0002AE030E0FF2069F0CA01B9010E940F3FFF
:102AD000405DBAE06B9F401911244293FA94AB0118
:102AE000F1CF0F900F90DF91CF911F910F91FF9039
:102AF000DF90CF9008950F931F93CF93DF93CDB7BF
:102B0000DEB72B970FB6F894DEBF0FBECDBF8E0198
:102B10000F5F1F4F1A87098727E02B87AC01BE0183
:102B2000655F7F4FCE0109960E942615B8018DEE94
:102B300090E00E94331A2B960FB6F894DEBF0FBEBA
:102B4000CDBFDF91CF911F910F9108950F931F93E8
:102B5000CF93DF93CDB7DEB761970FB6F894DEBFA2
:102B60000FBECDBF0097D1F0613108F060E1062FB4
:102B700010E0A801BC01CE0101960E94963FE1E061
:102B8000F0E0EC0FFD1FE00FF11F1082BE016F5F40
:102B90007F4F8DEE90E00E94331A01C080E0619675
:102BA0000FB6F894DEBF0FBECDBFDF91CF911F915E
:102BB0000F9108950F931F93CF93DF93CDB7DEB797
:102BC00061970FB6F894DEBF0FBECDBF0097D1F06E
:102BD000613108F060E1062F10E0A801BC01CE01D0
:102BE00001960E94873FE1E0F0E0EC0FFD1FE00F4F
:102BF000F11F1082BE016F5F7F4F8DEE90E00E944B
:102C0000331A01C080E061960FB6F894DEBF0FBEA4
:102C1000CDBFDF91CF911F910F91089560E10C948A
:102C2000DA15CF92DF92EF92FF920F931F93CF931B
:102C3000DF93CDB7DEB762970FB6F894DEBF0FBE55
:102C4000CDBF009719F1613108F060E16C018E0190
:102C50000F5F1F4F78018E2D801B861768F4C60109
:102C60006A8B0E94B53FF70181937F01FFEFCF1A76
:102C7000DF0A6A898111EFCFF801E60FF11D10829A
:102C8000B8018DEE90E00E94331A01C080E0629698
:102C90000FB6F894DEBF0FBECDBFDF91CF911F916D
:102CA0000F91FF90EF90DF90CF900895882319F057
:102CB0008CE392E002C088E392E00C940E16682F39
:102CC0008DEE90E00C94121ACF93DF93D82FC0E0D2
:102CD000CD1729F080E20E945F16CF5FF9CF8C2FCD
:102CE000DF91CF91089580E10C946416CF93DF9328
:102CF0001F92CDB7DEB7682F64303CF080E2698365
:102D00000E945F1669816150F7CF80E492E00F90D6
:102D1000DF91CF910C94DA156AE00E94033F80E3C3
:102D2000890F0C945F16DF92EF92FF920F931F931F
:102D3000CF93DF93EC01F62ED42E16160CF089C03B
:102D400068EE73E00E940F3F8B0180E090E00E94EC
:102D5000AD2E24E0E22EE80EEF142CF480E20E9467
:102D60005F16FA94F9CFFE14E4F0D1101AC0BE0138
:102D700080E090E00E94AD2E182FFA941F1524F4E5
:102D800080E20E945F16F9CFCE010E947B158DE68E
:102D9000DF91CF911F910F91FF90EF90DF900C94F6
:102DA0005F162E2D332727FD3095245031094F2DE6
:102DB000552747FD50954217530754F48F2DDF9147
:102DC000CF911F910F91FF90EF90DF900C947616AA
:102DD000C8010E947B15CE0168EE73E00E940F3F90
:102DE000EC011F2D1E1993E0F92EF10E84E0810FE6
:102DF00018161CF48EE20E945F1602E0010F1F14E9
:102E000044F4CE0164E670E00E940F3F862F0E94DA
:102E10008C16CE0164E670E00E940F3FEC011F5F4C
:102E200010163CF46AE070E00E940F3F862F0E946B
:102E30008C16111674F4CE016AE070E00E940F3F08
:102E4000DF91CF911F910F91FF90EF90DF900C9445
:102E50008C16DF91CF911F910F91FF90EF90DF9033
:102E60000895EF92FF920F931F93CF93DF93EC019E
:102E7000F62E16160CF059C064E670E00E940F3F63
:102E80008B0180E090E00E94AD2E33E0E32EE80E4F
:102E9000EF142CF480E20E945F16FA94F9CF2E2DE5
:102EA000332727FD3095235031094F2D552747FDF6
:102EB0005095421753074CF48F2DDF91CF911F91FE
:102EC0000F91FF90EF900C947616C8010E947B152D
:102ED000CE0164E670E00E940F3FEC010F2D0E1949
:102EE00012E0100F83E0800F18161CF48EE20E948F
:102EF0005F16FF24F394F00E111644F4CE016AE03D
:102F000070E00E940F3F862F0E948C161F146CF4F5
:102F1000CE016AE070E00E940F3FDF91CF911F91D8
:102F20000F91FF90EF900C948C16DF91CF911F9131
:102F30000F91FF90EF900895BF92CF92DF92EF92A2
:102F4000FF920F931F93CF93DF938C01D62EB42E55
:102F5000C22E1616ACF52111DA94B80180E090E08B
:102F60000E94AD2EC82FD0E0ED2CFF24E7FCF0949A
:102F7000CE15DF052CF48B2D0E945F16DA94F4CF6A
:102F8000CC2019F08DE20E945F16EC16FD0664F469
:102F90008D2DDF91CF911F910F91FF90EF90DF90DA
:102FA000CF90BF900C947616C801DF91CF911F91FE
:102FB0000F91FF90EF90DF90CF90BF900C947B1516
:102FC000DF91CF911F910F91FF90EF90DF90CF9005
:102FD000BF90089520E00C949C17CF93DF936CE38F
:102FE00070E00E940F3F9B01EC0140E363E0C901E8
:102FF0000E94EA178AE30E945F1640E362E0CE0176
:10300000DF91CF910C94EA1740E20C94EA17292F34
:10301000221F2227221F19F091958195910940E2E4
:103020000C949C17161634F461500E94311783E4F7
:103030000C945F160895161634F461500E9404181B
:1030400085E20C945F16089563303CF062500E9454
:10305000041885E392E00C940E160895FF920F93E6
:103060001F93CF93DF93CDB7DEB728970FB6F894B1
:10307000DEBF0FBECDBF4EE0F42EF9821FE11A83F2
:1030800001E10B830C830D830E830F831887AE0140
:103090004F5F5F4F60E08DEE90E00E948B19F982E8
:1030A0001A830B830C831D831E831F831887AE0135
:1030B0004F5F5F4F61E08DEE90E00E948B19F982C7
:1030C0001A831B831C831D831E831F831887AE01F5
:1030D0004F5F5F4F62E08DEE90E00E948B19289663
:1030E0000FB6F894DEBF0FBECDBFDF91CF911F9119
:1030F0000F91FF9008950F931F93CF93DF93062FA7
:10310000142F64E670E00E940F3FEB0180E20E9402
:103110005F1680E20E945F16C436D10548F480E253
:103120000E945F16CA30D10518F480E20E945F1633
:10313000CE010E947B15802F0E945F16812F0E9476
:103140005F1680E2DF91CF911F910F910C945F1673
:103150000F931F93CF93C62F1416BCF56FEF640F18
:103160000C2F10E00830110508F5F801E65DFF4F5F
:103170000C94643F16E51BC040E201C048E667E5D9
:10318000CF911F910F910C947B18642FCF911F91B9
:103190000F910C94121814EF07C00E94071885E5D0
:1031A0000FC06EEF640F11E440E002C015E541E08E
:1031B0000E949316812F0E945F16C53031F488E675
:1031C000CF911F910F910C945F16CF911F910F918A
:1031D0000895462F65E00C94A818462F60E00C94E3
:1031E000A818462F61E00C94A818462F66E00C94AE
:1031F000A818AC9881E090E00E94D63EAC9A81E09D
:1032000090E00E94D63EAC9884E690E00C94D63EC6
:10321000A39AA29AA19AA09A60FF02C0AB9A01C099
:10322000AB9861FF02C0AA9A01C0AA9862FF02C0CF
:10323000A99A01C0A99863FF02C0A89A01C0A898E2
:103240000C94F9181F93CF93DF93EC01162F4423AE
:1032500011F0AD9A01C0AD98612F70E084E07595D2
:1032600067958A95E1F7CE010E940819612FCE017A
:10327000DF91CF911F910C94081940E00C94221912
:1032800061E00E943D1980ED97E00C94D63ECF930B
:10329000DF93CDB7DEB728970FB6F894DEBF0FBE29
:1032A000CDBF28E0E1E7F0E0DE01119601900D923C
:1032B0002A95E1F7FC012481421710F04FEF420FED
:1032C000FE013196E40FF11DE40FF11D2081260F60
:1032D0002068622F28960FB6F894DEBF0FBECDBFD0
:1032E000DF91CF910C943D19FC016181262F246060
:1032F00021836C600C943D19FC0161816E7F6183B8
:1033000068600C943D19FC016181262F21602183A6
:1033100069600C943D19CF92DF92EF92FF920F9368
:103320001F93CF93DF9300D0CDB7DEB77C016770DA
:1033300088E0689FB00111246064C70149835A8303
:103340000E943D194981C42E5A81D52E00E010E01B
:10335000F60161916F0141E0C7010E9422190F5FE0
:103360001F4F08301105A1F70F900F90DF91CF91FB
:103370001F910F91FF90EF90DF90CF900895CF9322
:10338000DF93EC01423018F08881886088834C8399
:103390001D82222329F0413019F4888184608883BA
:1033A00080E593EC0E94D63EAD98AC9863E0CE01E8
:1033B0000E94081984E991E10E94D63E63E0CE01A3
:1033C0000E94081984E991E10E94D63E63E0CE0193
:1033D0000E94081986E990E00E94D63E62E0CE0184
:1033E0000E94081968816062CE010E943D1984E044
:1033F0008983CE010E947419CE010E94401982E097
:103400008A8366E0CE01DF91CF910C943D19A59A95
:10341000A49AFC01108220E041E060E10C94BF1905
:103420000C94071A41E00E94221981E00895EF925E
:10343000FF920F931F93CF93DF938C01F42EC62F2F
:10344000D72FE42EE60EEC1631F0699141E0C80169
:103450000E942219F8CF8F2DDF91CF911F910F91EC
:10346000FF90EF9008956115710559F0FB010190EF
:103470000020E9F7AF0141505109461B570B0C944E
:10348000171A80E00895FC0127818085E22FF82F2C
:10349000E60FF11DE60FF11D859194910C940E1627
:1034A0000F931F93CF93DF93EC018B01CB010E940D
:1034B0008E2E682FCE010E94B31A8CE990E099837A
:1034C000888318870F83DF91CF911F910F91089503
:1034D000DF92EF92FF920F931F93CF93DF93EC0154
:1034E000F62E69871A8681E08D8382E0D82EEE243D
:1034F000E3948E01075F1F4F0E945C14482F8230B7
:1035000011F0843061F4E881F9810280F381E02DCB
:103510006F2DCE010995F986DA86ED8204C08130DF
:1035200089F0883079F0C8010E94802F8111ED82E6
:103530008D81882319F0CE010E94E01A8A858F5F61
:103540008A87DACF8FEF898781E08E838D83483039
:1035500009F080E0DF91CF911F910F91FF90EF90E4
:10356000DF9008950895FC0182EA90E091838083C2
:1035700012821382648381E0858386830895FC012F
:103580002281211103C081E082830895438130E0CC
:10359000240F311D848190E001972817390714F416
:1035A0004F5F43830895FC018281882319F0815085
:1035B000828308958381882311F081508383089545
:1035C0001F93CF93DF93EC0110E0612F80E00E9406
:1035D000C01480E20E945F16E881F9816B81610F5F
:1035E0000190F081E02DCE0109950E9473161F5FB6
:1035F000123059F76A8180E00E94C0148EE30E9465
:103600005F166A818FE00E94C0148CE30E945F16EF
:103610001D82DF91CF911F9108950F931F93CF9338
:10362000DF93EC010E945C14182F0E943438882329
:1036300021F081E08D838FE71CC00B818A81080F08
:10364000123031F0143039F4CE010E94BF1A03C099
:10365000CE010E94D31A8B819A81890F081711F02D
:1036600081E08D838D81882319F0CE010E94E01ABC
:10367000812FDF91CF911F910F910895EF92FF92CB
:103680001F93CF93DF931F92CDB7DEB77C0181E00C
:10369000F701858311E0C70169830E940D1B6981D1
:1036A000811102C0F7011682F7019681911108C0BD
:1036B000883031F481E0868383819281890F09C04B
:1036C000662311F0F7011583813029F79111E3CFBB
:1036D0008FEF0F90DF91CF911F91FF90EF900895A2
:1036E0000F931F93CF93DF93EC018B0150E00E9467
:1036F00026154AE3B801CE01DF91CF911F910F91BA
:103700000C94D214EF92FF920F931F93CF93DF93F9
:1037100000D01F92CDB7DEB78C01462F0B969A834F
:1037200089838EE08B83D801EC91F0E0EE0FFF1FD0
:10373000E55AFD4FE590F490BE016D5F7F4FCE01DD
:1037400001960E94701BA701BE016D5F7F4FCE01E5
:1037500001960E94ED1440E2BE016D5F7F4FCE01E5
:1037600001960E94D214F80141815281BE016D5F21
:103770007F4FCE0101960E9426154FE2BE016D5F7C
:103780007F4FCE0101960E94D214D80117964D9119
:103790005C911897BE016D5F7F4FCE0101960E942C
:1037A00026150F900F900F90DF91CF911F910F91E1
:1037B000FF90EF900895CF93DF9300D01F92CDB785
:1037C000DEB7462F2EE02B830B969A838983BE01AA
:1037D0006D5F7F4FCE0101960E94701B0F900F907E
:1037E0000F90DF91CF91089529E1289FB001299F83
:1037F000700D11246E567F4F49E150E083E892E04E
:103800000C94A53F29E1289FB001299F700D112438
:103810006E567F4F49E150E083E892E00C94C33F3D
:10382000DC01EC91B6E0EB9FF0011124E60FF11DF5
:10383000EE0FFF1FE15FFC4F859194910895DC012D
:10384000EC9146E0E49FF0011124E60FF11DEE0F2C
:10385000FF1FE15FFC4F8591949117962D913C914C
:103860001897AC01429FC001439F900D529F900D4D
:1038700011240895FC01A181B2812091A803309107
:10388000A9030E94DD3E24E630E040E050E00E94C3
:10389000233F293EFDEF3F074105510520F028EE6B
:1038A0003DEF40E050E0C9010895FC012081213046
:1038B00029F420919E0330919F0309C0223029F4FE
:1038C00020919C0330919D0302C020E030E0FC0178
:1038D00087819085AC01249FC001259F900D349F66
:1038E000900D112408958091980390919903089563
:1038F000FC016081FBE06F9FB00111246F557D4F8B
:103900004BE050E00C94753FDC01EC91F0E0EE0FE1
:10391000FF1FE55AFD4F859194910C94DA1560E1F3
:1039200070E00C94841CCF93DF93EC01888160E0FD
:10393000811108C0CE010E941F1C67E00E94F1188F
:1039400087E011C0CE010E941F1C65E00E94F118A3
:103950008FE20E945F168F8198850E947B1583E419
:103960000E945F1688E0DF91CF91089566E0FC0128
:10397000838194810E94ED1886E0089566E0FC0141
:10398000858196810E94ED1886E00895FC01818171
:103990009281883EFDEF9F0729F481E592E00E9425
:1039A0000E1603C067E00E94E91888E0089529E137
:1039B000AC01249FC001259F900D112483569F4F79
:1039C00008950F931F93CF93DF93CDB7DEB7A697DC
:1039D0000FB6F894DEBF0FBECDBF8C01AB01BC01AA
:1039E000CE0101960E94681ECE0101960E94ED1E36
:1039F00089E1FE013C96D80101900D928A95E1F78C
:103A0000A6960FB6F894DEBF0FBECDBFDF91CF9163
:103A10001F910F910895FC012081260F2A3040F05C
:103A2000161617061CF4FC01108203C029E0FC01E5
:103A300020830C94781C61E00E941F1C9C0140E0D4
:103A400050E060E074EB84EC94E00E94233F293561
:103A50008BE138074105510520F028E53BE140E0C6
:103A600050E0C901089561E00E941F1C9C0140E0E4
:103A700050E060E47BE48CE490E00E94233F213D31
:103A800087E038074105510520F020ED37E040E0A0
:103A900050E0C90108950F931F93CF93DF9300D097
:103AA000CDB7DEB78C0169837A830E941B1DAC0100
:103AB00069817A81C80103960F900F90DF91CF91B1
:103AC0001F910F910C94642F0F931F93CF93DF934B
:103AD00000D0CDB7DEB78C0169837A830E94331D95
:103AE000AC0169817A81C80105960F900F90DF9132
:103AF000CF911F910F910C94642FDC01EC91BCE0ED
:103B0000EB9FF0011124EF5EFC4F6591749184EFFF
:103B100095E60E940F3FCB010895EF92FF920F931D
:103B2000CF93DF9300D0CDB7DEB77C0169837A8372
:103B30000E947D1DF701208169817A81211103C0D6
:103B400022E330E002C020E030E001E0AC01C70138
:103B500007960E94FF2E0F900F90DF91CF910F914B
:103B6000FF90EF900895CF93DF93EC010E947D1DAD
:103B70002F8138858217930710F498878F83CE01A1
:103B80000E941B1D2B813C818217930710F49C839C
:103B90008B83CE010E94331D2D813E8182179307B6
:103BA00010F49E838D83DF91CF9108950F93CF936F
:103BB000DF93EC0104E620E030E048EE5DEF019693
:103BC0000E94FF2E89819A819C838B8328812330D8
:103BD00039F49C0136952795369527953C832B83A0
:103BE0009E838D83CE01DF91CF910F910C94B31DF5
:103BF0000F931F93CF93DF934BE050E063EE72E09F
:103C000083E892E00E94753F83E892E00E94B31D32
:103C1000C0E0D0E08E010F5F1F4FB80183E892E053
:103C20000E94DB1BCE010E94021C0032110511F024
:103C3000E801F0CFDF91CF911F910F910895FC0122
:103C4000818592850895FC0181859285883EF3E007
:103C50009F0719F489E492E004C00E947B1584E474
:103C600092E00E940E1686E008950F9301E020E096
:103C700030E048EE53E009960E94FF2E0F91089520
:103C8000262F443019F06FEF7FEF02C061E070E043
:103C9000223091F028F4222349F0213051F0089588
:103CA000243081F060F0253081F008950B960C945B
:103CB0000B1D0B960C948D1D0B960C94D61D0B961C
:103CC0000C944B1D0B960C94641D0B960C94351E96
:103CD000EF92FF920F931F93CF93DF93EC018B0131
:103CE0007A0168E973E00E94501A8FEF898788EAA9
:103CF00090E09983888389E1F801DE011B960190A9
:103D00000D928A95E1F7FDA2ECA2DF91CF911F9170
:103D10000F91FF90EF9008950F931F93CF93DF9330
:103D2000CDB7DEB728970FB6F894DEBF0FBECDBF74
:103D30008C01BC016A5E7F4F2DE833E04EE050E01D
:103D4000CE0101960E94DB13CE0101960E94E6137C
:103D500081E0F801858328960FB6F894DEBF0FBE88
:103D6000CDBFDF91CF911F910F910895CF93DF9336
:103D7000EC010E94CE140E94C61487E893E00E94D2
:103D80000E160E94CA146EE0CE0146960E94A61539
:103D90000E946C2F83E0DF91CF910C945538CF9324
:103DA000DF93EC016CA17DA16F5F7F4F0B960E94AA
:103DB000821BCE01DF91CF910C94B61ECF93DF937F
:103DC000EC016CA17DA16F5F7F4F0B960E94DB1B06
:103DD000CE01DF91CF910C94B61EDF92EF92FF924D
:103DE0000F931F93CF93DF93CDB7DEB769970FB6CD
:103DF000F894DEBF0FBECDBF8C0189E1D82EC8017B
:103E00000B967C0160E0C8010E943E1B87FD30C01C
:103E1000873041F0883051F0863061F4C8010E944B
:103E2000CF1EF0CFC8010E948C1EECCFC8010E94AB
:103E3000DE1EE8CFF701DE0111969D2D01900D9257
:103E40009A95E1F7682FC8010E94681A811109C08C
:103E5000FE013196D7018D2D01900D928A95E1F7E3
:103E6000D1CF83E00E945538C7010E94B31DCACF4D
:103E700069960FB6F894DEBF0FBECDBFDF91CF912C
:103E80001F910F91FF90EF90DF9008951F93CF93B4
:103E9000DF93EC01162F0E94431ACE0109960E946F
:103EA000752F882311F0298501C02FEF332727FDB7
:103EB0003095812F90E02817390749F11230C9F069
:103EC00048F4112389F0113011F5CE010B960E94B0
:103ED000931C1DC01430B9F088F01530C1F4CE0128
:103EE0000B960E94231E13C0CE010B960E948F1CBE
:103EF0000EC0CE010B960E94C61C09C0CE010B96C7
:103F00000E94B61C04C0CE010B960E94BE1C80E02D
:103F1000DF91CF911F9108950F931F93CF93DF935C
:103F200000D0CDB7DEB789839A830E94C6148981F9
:103F30009A810E940E160E94CA14009124031091C7
:103F40002503C8010E947E3F892B19F0C8010E94F9
:103F50000E160F900F90DF91CF911F910F910C943F
:103F600073168091940390919503892BA1F08DE1B4
:103F70000E94B60965E02AE0AC01249FC001259F9C
:103F8000900D11240E9407188DE60E945F1683E4AD
:103F90000E945F1604C087E594E00E940E160C9400
:103FA00073168BE10E94B60965E00E9407188DE642
:103FB0000E945F1686E50E945F160C94731690E0CF
:103FC000880F991F62E08A519B4F0C94DA150F936A
:103FD0001F93CF93DF9361E083E892E00E941F1C60
:103FE0008C0165E083E892E00E941F1CEC0184E1F3
:103FF0000E94B60980179107B8F4C817D907B0F422
:104000009C012C1B3D0BC8018C1B9D0B64E670E0D2
:104010000E940F3FC9010E940F3F6436710510F0E6
:1040200063E670E0862F03C083E601C080E0DF9185
:10403000CF911F910F910895613011F40C94530F9B
:104040000C944B2DCF93DF93D82FC62F8FE18D0F7C
:104050000E94010C882351F06C2F8D2F0E941C2090
:1040600046E06C2FDF91CF910C94A8188FED94E06F
:10407000DF91CF910C940E16FF920F931F93CF9365
:10408000DF93182F062F0E94C6148091D302882335
:1040900019F01092D30203C081E08093D302909173
:1040A000D1028091D202992311F08F5F01C081501B
:1040B0008093D2028091D20286301CF01092D102FD
:1040C00005C082301CF481E08093D10210929D02E1
:1040D0000E943A0F811108C083E090E00E944B10CB
:1040E000882341F0C0E209C080915702882321F063
:1040F000C2E403C0CDE601C0C2E680917102811125
:1041000003C08C2F0E945F1680917102882331F1C9
:10411000D0E0C1E00E94370FD817D0F4809172022E
:10412000D81761F0809171028C2331F08091D30215
:10413000882321F082E003C081E001C080E00E947A
:104140005F16C03811F0CC0F01C0C0E0DF5FE2CFD6
:104150000E94370F98E0981B892F25C08091D102CB
:10416000882319F04EE3F42E02C03CE3F32ECD3643
:1041700011F0C032B9F4C1E0D0E02091D20233276F
:1041800027FD30952C173D0711F48F2D01C080E2DB
:104190000E945F162196C730D10579F780E20E9410
:1041A0005F1603C087E00E946416C1E0C10F8C2F28
:1041B0000E948C1611110AC00E946A29882331F0CE
:1041C0000E947029892B11F08FE301C08AE30E94BD
:1041D0005F16602F812F0E9422200E9473160E947A
:1041E000CA14C630C8F4D2E0D10F8D2F0E948C16AD
:1041F0008AE30E945F16602F8C2F0E942220D63007
:1042000059F083E0810F0E948C168AE30E945F16AA
:10421000602F8D2F0E942220DF91CF911F910F914F
:10422000FF900C94731689E10E94B60968E00E9421
:10423000E91880E20C945F160E94C6142091760261
:104240008091860390918703223031F466E00E94CA
:10425000041884ED94E005C065E00E94041880ED28
:1042600094E00E940E1680E20E945F160E94432D89
:1042700067E00E94ED180E9473160E94CA1487EC32
:1042800094E00E940E1667E0809180039091810374
:104290000E94F1180C9473160F931F936091DE0225
:1042A0007091DF028091E0029091E10220919C02E6
:1042B000222371F00E9469090091DE021091DF0251
:1042C0002091E0023091E102601B710B820B930B95
:1042D00028EE33E040E050E00E94233FC9011F91E7
:1042E0000F910895CF930E94FD28811110C00E9464
:1042F0006A29882331F00E94FD2881110AC0C4E494
:104300000BC00E943A0F811106C0CEE405C0C3E481
:1043100003C0C5E401C0C2E40E94ED288111C7E5D5
:104320008C2F0E945F1680E20E945F160E944C2133
:104330000E94ED1780E2CF910C945F160E94C61484
:10434000809176028230D9F4CF990BC066E08091DB
:104350008802909189020E9404188BED94E00E94DB
:104360000E1686990EC066E08091860290918702B3
:104370000E94041887ED94E00E940E1602C00E946D
:10438000132167E087E10E94300C0E9473160E949F
:10439000CA140E94722167E082E10E94300C0C94E2
:1043A00073160E9469096093DE027093DF028093A6
:1043B000E0029093E1021092DA021092DB02109276
:1043C000DC021092DD021092D6021092D7021092F7
:1043D000D8021092D90281E080939C0208950F9335
:1043E0001F930E9469090091DE021091DF02209163
:1043F000E0023091E102601B710B820B930B609322
:10440000DE027093DF028093E0029093E10210924B
:104410009C021F910F910895CF92DF92EF92FF922D
:104420000E94C6148CEB94E00E940E160E944C2150
:104430000E94ED170E94CA1489EB94E00E940E16A8
:104440006091DA027091DB028091DC029091DD02D2
:1044500058EEC52E53E0D52EE12CF12CA701960184
:104460000E94233FC9010E94ED1786EB94E00E9451
:104470000E166091D6027091D7028091D802909169
:10448000D902A70196010E94233FC901FF90EF9036
:10449000DF90CF900C94ED170E94C6148DEA94E043
:1044A0000E940E160E94552D68E00E94F5180E9489
:1044B00073160E94CA1483E10E94010C882349F0FC
:1044C00084EA94E00E940E160E945B2D68E00E9430
:1044D000F5180C9473160E94C6148CE994E00E949F
:1044E0000E1667E086E00E94300C0E9473160E9450
:1044F000CA1484E994E00E940E1647E061E08091BE
:10450000AA039091AB030E94A8180C9473160E9402
:10451000C6148DE894E00E940E1667E082E10E94C6
:10452000300C0E9473160E94CA1486E894E00E9420
:104530000E1667E083E10E94300C0C9473160E9403
:10454000C61480E894E00E940E1680919403909126
:104550009503892B29F065E087E00E94300C04C0A8
:104560008EE794E00E940E160E9473160E94CA14F1
:104570000C9473160F931F93CF93DF9300D0CDB796
:10458000DEB78B0189839A830E94CE140E94C614E1
:1045900089819A810E940E160E94CA14C8010F9048
:1045A0000F90DF91CF911F910F910C940E168DE615
:1045B00094E00E948C1F0E94CA1486E694E00E9438
:1045C0000E160E944C210C94ED178FE594E00C948C
:1045D0008C1F0E94C6140E9413210E94B11F0E94CA
:1045E000CA140E9472210C94D11F0E94C6148EE43A
:1045F00094E00E940E1667E08CE10E94300C0E944D
:1046000073160E94CA1484E494E00E940E160C945F
:10461000D11F0E94C6148EE394E00E940E16809172
:10462000940390919503892B31F00E94D30969E09E
:104630000E94121804C08AE394E00E940E160E94A1
:1046400073160E94CA1480E394E00E940E160C9424
:10465000B11F60E070E08CE294E00C94BA220E94FA
:1046600029230C946C2F60E070E080E294E00E94BB
:10467000BA2288E893E10C94700960E070E08FE062
:1046800094E00C94BA226091D6027091D702809186
:10469000D8029091D90220E63AEE40E050E00E9424
:1046A000233FC9010895CF93DF938091D0028F5F9C
:1046B000843018F48093D00202C01092D00280910E
:1046C000D002833061F4C0916C00CF5FC0936C0066
:1046D0000E94F02A8C1718F481E080936C00C0913E
:1046E0006C00C1500E94C61480916C0061E090E0A3
:1046F0000E94041880E00E945F16D0E0CC0FDD1FFE
:10470000FE01E056FD4F808191810E94ED1781E00E
:104710000E94641682E00E945F16FE01E655FD4F7E
:10472000808191810E94ED170E9473160E94CA1425
:10473000FE01EC54FD4F68E0808191810E94E918F0
:10474000C254DD4F68E0888199810E94E918DF91A9
:10475000CF910C947316CF93DF93C0E0DFE061E05C
:104760008D2F8C1B0E94C0148FEF0E945F1660E09B
:104770008C2F0E94C0148FEF0E945F168AE090E099
:104780000E947009CF5FC03151F78AE090E0DF915D
:10479000CF910C947009CF93C82F0E94CE140E9421
:1047A000C6148FEE93E00E940E1662E08C2F90E00C
:1047B0000E94041880E49FE1CF910C94700910923C
:1047C000CD021092CC021092CB021092CA028091BC
:1047D000CE028093CF021092C9021092C8020895AF
:1047E000CF93DF9327E630E08AEA92E0C0EAD2E096
:1047F000AEEBB2E064EB72E045E05DE2F9015193AB
:104800009F01FC0111921192CF01199219921D92F0
:104810001D92FB0111921192BF01415079F7DF9176
:10482000CF910895CF930E94DF230E94F0230E942E
:10483000C61464E070E083E892E00E94841C8091DA
:104840007602823011F48EE301C080E20E945F168E
:1048500083E892E00E94931C80917602823011F4EA
:104860008CE301C080E20E945F16809126030E94C3
:10487000DF1F0E94CA140E94E71F8093CE0262E0ED
:1048800090E00E9404188CE094E00E940E1684EDE3
:1048900092E00E94752F882319F0C091D40201C0C4
:1048A000CFEFC0FF05C065E082E10E94300C03C07D
:1048B00085E00E94641680E20E945F168091830268
:1048C00084508630A8F4C1FF05C065E083E10E94F2
:1048D000300C03C085E00E946416C2FF05C00E9430
:1048E000200CCF910C948C1680E2CF910C945F1623
:1048F00066E080918402909185020E94E918CF9130
:104900000C9473160E94E71F8093CE029091CF0201
:10491000981728F58093CF020E944C212091CA025B
:104920003091CB02821B930B9093CD028093CC02EB
:104930000E944C219093CB028093CA028091CC02BA
:104940009091CD022091C8023091C90228173907F1
:1049500010F0232B21F49093C9028093C80208958C
:10496000CF93DF930E9482240E94200C811128C0E3
:1049700083E10E94B609EC0182E10E94B609C817E2
:10498000D90728F49C012C1B3D0BE90102C0C81B70
:10499000D90BC53FD140A0F024E630E08091CF0292
:1049A000281B31094091C8025091C902249FC001BF
:1049B000259F900D349F900D1124DF91CF91089584
:1049C00029E6EBCFFF920F931F93CF93DF930E94C3
:1049D000F02AFF24FA94F80E0E94F32A833429F572
:1049E0000F2D112707FD1095F801E959FF4F80831E
:1049F000000F111FE801C655DD4F6091D60270917E
:104A0000D7028091D8029091D90228EE33E040E09D
:104A100050E00E94233F3983288389E10E94B60930
:104A2000F801E254FD4F918380830E94F32A84347D
:104A300029F5CF2DDD27C7FDD095FE01E959FF4FA0
:104A40008083CC0FDD1F8E0100561D4F6091D60272
:104A50007091D7028091D8029091D90228EE33E06C
:104A600040E050E00E94233FF8013183208389E138
:104A70000E94B609CC54DD4F99838883DF91CF9192
:104A80001F910F91FF900895869B2DC0CF9B2BC047
:104A90000E943A0F8823A1F08091DA029091DB0204
:104AA000A091DC02B091DD0280599F4FAF4FBF4F04
:104AB0008093DA029093DB02A093DC02B093DD02D4
:104AC0000E94E2240E94B02490939F0280939E0251
:104AD0008091D0028F5F893218F48093D0020895BC
:104AE0001092D00208958091D6029091D702A091A1
:104AF000D802B091D90280599F4FAF4FBF4F8093DA
:104B0000D6029093D702A093D802B093D902C0CF17
:104B100081E09091D002953108F080E008950E94E4
:104B200082240E9488258823B9F00E94C6140E941E
:104B3000132167E087E10E94300C0E9473160E94E7
:104B4000CA140E9472218AE094E00E940E160E940C
:104B5000FD2881111CC02FC00E94C61468E088E1A6
:104B60000E94300C88E094E00E940E1667E087E116
:104B70000E94300C0E9473160E94CA1468E08AE1F9
:104B80000E94300C85E094E00E940E1614C08091C3
:104B9000CE02833680F48091C8029091C902459775
:104BA00030F080919E0290919F020C94ED178EEF51
:104BB00093E00C940E168091CE0264E090E00E9487
:104BC00004188CEF93E00E940E160C9473169091CB
:104BD000D5029F5F9093D50290E0FC013197E331BD
:104BE000F10570F5EE5CFF4F0C94643F0C949E2130
:104BF0000C941C210C940C220C949F2261E007C0A1
:104C000061E083E00C943C2061E006C066E080E057
:104C1000F9CF66E0F6CF66E086E0F4CF0C9412247C
:104C20000C944C220C9487220C946B220C948F25AC
:104C30000C94F5220C9409230C94E9220C94532330
:104C400008958FEF8093D40208950F931F93CF930D
:104C5000DF930E943029009186021091870261E063
:104C600083E892E00E941F1CEC01C80165E070E03F
:104C70000E940F3F8B0140E0CE010E947F2D8FE00C
:104C80000E94AB2DBE01C801DF91CF911F910F9102
:104C90000C94182981E00C9444290E94600A88230E
:104CA00029F082E00E94B6090C94302E08951092EB
:104CB000E2020C942526CF93DF930E944D260E949A
:104CC000560AEC018091E202811117C062E083E88C
:104CD00092E00E941F1C8C179D0778F481E080935E
:104CE000E20261E083E892E00E941F1CBC01809117
:104CF0008602909187020E9418290E94600A8823E8
:104D000081F064E083E892E00E941F1C8C179D07ED
:104D100040F481E195E0909325038093240381E0A2
:104D200031C00E94D8090297E8F080919A039091CF
:104D30009B03892B89F08BE10E94B609EC0183E883
:104D400092E00E94551CD195C195D1098C179D0701
:104D50001CF48DE095E0DFCF809194039091950352
:104D6000892B11F482E00EC08DE10E94B609EC019E
:104D700083E892E00E94731C8C179D079CF787E0E4
:104D800095E0C9CFDF91CF9108958130910521F051
:104D90009093E4028093E3027093E6026093E5024D
:104DA00008950F931F93CF93DF93C091E302D091A7
:104DB000E402CE010E9485118C010E94560AC2971E
:104DC000C817D90738F4C801DF91CF911F910F910F
:104DD0000C94671181E0DF91CF911F910F9108959D
:104DE00081E00E94CD290C9411100E94BD290E94DF
:104DF000C70F21E08091AE039091AF03892B09F496
:104E000020E02093E70280E10C94AB2D0F931F93D9
:104E1000CF93DF930E94D126182F83E00E94B6091A
:104E2000EC018091E702882329F0BE01812F0E94C6
:104E3000F92D01C0812F882329F081E00E94CD291E
:104E400081E01AC0BE01812F0E947E2EEC010E94DB
:104E500070298C01609188027091890283E00E9420
:104E6000900B0817190739F0BE01809188029091C4
:104E700089020E94A72982E0DF91CF911F910F91B3
:104E800008950F931F93CF93DF938C01EB010E9442
:104E9000C52640E0BE01C8010E947F2DCE016AE018
:104EA00070E00E940F3FCB01DF91CF911F910F91D6
:104EB0000C942D2D81E00E9444290C9411100E9425
:104EC000C70F0E9430298FE00C94AB2D0C947F2DDE
:104ED0000F931F93CF93DF93C0918003D0918103F1
:104EE000CE010E9485118C010E94560AC2968C1731
:104EF0009D0738F4C801DF91CF911F910F910C9459
:104F0000491181E0DF91CF911F910F9108951F9377
:104F1000CF93DF930E946827182F82E00E94B60982
:104F2000EC01BC01812F0E94F92D882329F081E03A
:104F30000E94442981E013C0BE01812F0E947E2E71
:104F4000EC010E940329209186023091870282178A
:104F5000930721F0BE01C9010E94182982E0DF9168
:104F6000CF911F9108950E945A270E94F0260C9419
:104F70001110CF93DF931F92CDB7DEB79091E90266
:104F8000913039F018F0923039F00FC00E94872725
:104F90000CC00E94062709C00E941A11823089F0B5
:104FA00089830E94B32789810CC0813051F490918C
:104FB000E802992331F082E08093E9020E94C70F52
:104FC00082E00F90DF91CF9108950E94C70F8091EA
:104FD000EA029091EB020E9485110E9467118823DA
:104FE00029F00E945F271092E90208950E94F52699
:104FF00081E08093E7028093E90208958093E802BC
:1050000008950F931F93CF93DF93EC018A01909340
:10501000EB028093EA0240E00E946627B801CE01CD
:10502000DF91CF911F910F910C94412787E08093DE
:10503000D40282E08093D5020E944E3883E08093B0
:10504000ED0208950F931F93CF93DF938091EC02AD
:10505000882379F00E94200C90918A0201E0981335
:1050600001C000E011E0811110E0913021F4112322
:1050700011F010E000E083E10E94010C882309F4A4
:105080005CC083E10E94B609EC0182E10E94B6098E
:10509000C817D90728F49C012C1B3D0BE90102C05D
:1050A000C81BD90BC53FD14008F447C0C1E001116E
:1050B00002C087E001C083E08093D402112329F06D
:1050C0008091D40282508093D402CC2329F0809125
:1050D000D40281508093D402011104C0111102C086
:1050E000CC2331F081E00E945538111107C004C073
:1050F00088E00E94553808C0002331F08091B00349
:105100009091B103892B11F4D0E001C0D1E00E944D
:105110003014811102C01092ED02D11106C0C111EC
:1051200004C00E943014883051F08091ED0282302A
:1051300011F481E00AC082E008C0C0E0B8CF8091DD
:10514000ED028F5F8093ED02F0CFDF91CF911F9141
:105150000F9108958FEF8093D40288E00C94553816
:105160008093EC0208951092F40208950E94690958
:1051700028EE33E040E050E00E94233F2093F0020D
:105180003093F1024093F2025093F30208950E948B
:10519000690928EE33E040E050E00E94233F60912F
:1051A000EE027091EF028091F0029091F102A091D5
:1051B000F202B091F302860F971FA11DB11D821755
:1051C0009307A407B50728F081E08093F40282E0FA
:1051D00008951092F40281E008958091F4020895F8
:1051E0002CE3AC01249FC001259F900D11249093C6
:1051F000EF028093EE020C94B62881E09091F702C2
:10520000911180E008958091F5029091F602089541
:1052100020916E00223041F02091BA033091BB03FF
:105220002817390708F4C9010E9412060C94DD0AF8
:105230000F931F93CF93DF93EC019093F60280932B
:10524000F50280E00E94900B8C01BE018FE00E946D
:10525000900BB801DF91CF911F910F910C94082909
:105260008091F702882379F01092F6021092F502ED
:1052700060E070E080E090E00E94082981E00E94F8
:105280005C061092F7020895CF93C82F8091F70221
:10529000811111C0CC2379F060E070E080E090E0F3
:1052A0000E9408291092F6021092F50280E00E94F6
:1052B0005C06C093F702CF9108951092F602109207
:1052C000F50260E070E080E090E00E94082981E053
:1052D0000C94442981E09091FE02911180E00895A0
:1052E0008091FC029091FD020895482F8091FA026E
:1052F0009091FB022091FC023091FD0282179307EE
:1053000011F4442361F09093FD028093FC026091BC
:10531000F8027091F9020E9412060C94DD0A0895B9
:105320007093F9026093F80220916E00223041F0F0
:105330002091BC033091BD032817390708F4C90137
:105340009093FB028093FA0281E00C9475290F93ED
:105350001F93CF93DF938B01BC0183E00E94900BDE
:10536000EC01B80180E00E94900BBC01CE01DF91FE
:10537000CF911F910F910C9490298091FE02882368
:1053800059F060E070E080E090E00E94902981E0B8
:105390000E944F061092FE020895CF93C82F80916D
:1053A000FE0281110DC0CC2359F060E070E080E076
:1053B00090E00E94902980E00E944F06C093FE0278
:1053C000CF91089560E070E080E090E00E94902925
:1053D00081E00C94CD29089580918302893051F0A9
:1053E0009CEF980F963048F08150823048F481E16C
:1053F00093E0089588E093E008958AE193E00895AA
:105400008FEF92E0089581E395E090937502809389
:10541000740290918302945081E0963008F080E00D
:105420000E94B02861E084EF95E00E94EF1191E0C6
:10543000813009F090E0892F08950F931F93CF9347
:10544000DF930E94FE270091880210918902C0918B
:105450008602D091870263E083E892E00E941F1CDD
:10546000A801BE010E9401288BE295E0909375028D
:105470008093740260E08AEF95E0DF91CF911F91F5
:105480000F910C94EF111F93CF93DF93162FC091C0
:105490008602D091870261E083E892E00E941F1C9F
:1054A00040E0BE010E94662785E295E09093750278
:1054B00080937402612F8AE196E0DF91CF911F9172
:1054C0000C94EF111F93CF93DF93182FC091860296
:1054D000D091870261E083E892E00E941F1C41E0C6
:1054E000BE010E94662725E235E0309375022093C5
:1054F0007402612F8AE196E0DF91CF911F910C94A5
:10550000EF1129E135E03093750220937402682F82
:1055100083E396E00C94EF11CF93C82F62E083E809
:1055200092E00E941F1C6091880270918902A091F4
:105530008A02B0918B02E091AC03F091AD03AE9F73
:105540009001AF9F300DBE9F300D1124820F931F2D
:105550000E9441272FE135E03093750220937402B9
:105560006C2F86E096E0CF910C94EF111F93CF93B0
:10557000DF93182FC0918802D091890262E083E8FE
:1055800092E00E941F1CBE010E9441272FE135E0DE
:105590003093750220937402612F88E296E0DF91C8
:1055A000CF911F910C94EF1188ED91E090937502CB
:1055B0008093740260E084E196E00C94EF11809196
:1055C000A2039091A3030E94F02887E395E09093B3
:1055D00075028093740261E086E096E00C94EF110E
:1055E00080912303089580916D000895813019F40E
:1055F00081E00C948C2A811103C081E00C94B62ABE
:105600008230B1F380E008954091230350E020916F
:10561000A0033091A1034217530789F0813041F470
:105620002091B0033091B103232BD9F0862F10C005
:10563000811102C0862F10C08230C9F412C081309F
:1056400049F48091B0039091B103892B49F080E037
:105650000C94622A811102C00C94812A823039F4A0
:1056600060E08091A6039091A7030C94432A80E008
:1056700008950F931F93CF93DF93C82F81E08093FA
:10568000230314E4D7E503E44091230350E0209181
:10569000A0033091A10324173507E8F10E942D0FD4
:1056A00010936D008C2F0E94F62A8130A9F5D093BB
:1056B0006D000E94DF2A813079F50E94DF230E946D
:1056C0002D0F00936D004091230350E02091A00323
:1056D0003091A1034217530711F061E001C060E06F
:1056E0008C2F0E94042B8130B9F4D0936D0040912F
:1056F000230350E02091A0033091A10342175307E8
:1057000021F00E94DF2A813039F4809123038F5FDA
:1057100080932303B9CF81E0DF91CF911F910F9147
:105720000895CF93C82F809326032DE335E030935F
:105730002503209324038F3030F4E82FF0E0E45564
:10574000FF4F808101C080E080936E000E94573936
:105750000E94FF0A0E94032A8823F1F184E00E943C
:1057600055388C2F90E08F309105A0F5FC01EB5B54
:10577000FF4F0C94643F60E08091A6039091A703D3
:105780000AC00E94D42A28C080E00E948C2A24C02B
:1057900060E085E090E00E94432A1EC060E080E067
:1057A00002C060E081E00E941D2A16C080E00E94D5
:1057B000812A12C080E00E94B62A0EC081E003C098
:1057C00080E001C082E00E94392B06C080E00E9488
:1057D000622A02C00E942F230E940E0BCF910C94CC
:1057E00067390F931F93CF93DF93EC010E94F41B53
:1057F0000E94EC298C0160E0C8010E943E1B87FDDD
:1058000029C090918302E82FFF27E7FDF09599309A
:1058100019F4E35AFA4F0FC08CEF890F863018F451
:10582000EC58FA4F08C09150923018F4E15BFA4FEF
:1058300002C0E25CFA4F84918F3049F4BE0183E8E4
:1058400092E00E94E11CCE010E94021CD1CF0E9476
:10585000912BD1CFDF91CF911F910F9108956DE7DB
:1058600075E08AE193E00E94501A63E575E081E1FA
:1058700093E00E94501A64E675E088E093E00E948D
:10588000501A63E475E08FEF92E00C94501AFC011B
:10589000428153814115510591F0A081B181B7FF3B
:1058A00003C0B195A195B10928EE33E00E94EC3E0A
:1058B0009A0140E050E00E94233FC901089580E032
:1058C00090E00895CF93DF9300D000D0CDB7DEB73E
:1058D000FC01228133813C832B83808191819A83D7
:1058E0008983CE0101960E94472C0F900F900F9054
:1058F0000F90DF91CF9108950F93FC01CB0100230E
:1059000041F04617570708F4CA016417750748F4B1
:1059100007C06417750708F4CA014617570708F44B
:10592000BA019783868391838083138212821582C2
:10593000148233872287681B790B718760870F91E8
:105940000895DF92EF92FF920F931F93CF93DF930F
:10595000EC012A813B812417350720F4FA01E21B70
:10596000F30B03C0F901E41BF50B8C819D81969527
:1059700087958E179F0770F58881998186179707FD
:1059800020F4FB01E81BF90B03C0FC01E61BF70B3D
:10599000EF2B01F12417350738F48A01021B130B92
:1059A0007B01E81AF90A06C07C01E61AF70A8901A8
:1059B000041B150BC7010E94A72ED82E8885998538
:1059C0000E94A72ED81206C01D830C83F986E88694
:1059D0001B870A87DF91CF911F910F91FF90EF9066
:1059E000DF9008950F931F93CF93DF93EC018B010A
:1059F0009A01A885B9850E94EC3E2A853B8540E046
:105A000050E00E94453FC801A0E0B0E08217930734
:105A1000A407B5071CF41F821E8204C0021B130BCF
:105A20001F830E83DF91CF911F910F910895EF9205
:105A3000FF920F931F93CF93DF93EC018B017A01B9
:105A40000E94A12CA701B801CE01DF91CF911F9137
:105A50000F91FF90EF900C94F22C8233910510F48B
:105A600082E390E09093850380938403089580916E
:105A70002703813029F48091840390918503089550
:105A800080E090E00895609182037091830380919B
:105A900029030C942C0B2CE0829FC00111246091EF
:105AA00029038C5C9C4F0C94622C609129038CE739
:105AB00093E00C94622CCF93DF9300D000D0CDB74D
:105AC000DEB782E10E94B6099A83898383E10E944E
:105AD000B60929813A81281B390B3A83298387E14A
