:100000000C94E6040C940E050C940E050C940E054D
:100010000C94A73B0C940E050C940E050C940E0545
:100020000C940E050C94E33B0C94E8080C940E051C
:100030000C940E050C94853C0C94BA3C0C940E0563
:100040000C940C090C940E050C940E050C940E05E2
:100050000C940E05D118B818BA18BC18C318CF18CC
:10006000C918CB18CE25B625B825BA25BC25BE257E
:10007000C025C425C625C925CB25DC25D025D225FC
:10008000D425D825DA25D625DE257C2BA72B822B57
:10009000852B892B8F2B922B972B9B2B9F2BA12B67
:1000A0007C2B852B892BA32B3C373F374437493793
:1000B0004C374F37523755375B375E3763376637C4
:1000C0006B377237753778377D378037AD37AF3755
:1000D000B437B937BD37C137C537C937CF37D1374F
:1000E000D537DB37E037E437E637E837EE37F23736
:1000F000CF38D138D338D738D738D538DB38D93896
:10010000000000000067582F00000000F567E6308F
:10011000010032000200E8030100320002002C015D
:1001200000000000000000000000000000000000CF
:10013000000000002ECA7E3BC24CA40B0C49701775
:100140000000000043BFA80E0000000080D566102C
:100150000000000080D0841F0000000031D5611035
:1001600000000000C0D665100000000080D46510BB
:100170000000000080D46510010032000200E80396
:100180000100320002002C010006080001FF0101FD
:1001900000000106090001FF0302010002060A0037
:1001A00001FF0000000006060E0000FF0302010030
:1001B00005060D0000FF0203000004060C0000FF0E
:1001C0000302010003060B0000FF040600000706FF
:1001D000070000FF03020100C50F0F10181143684C
:1001E00065616C692D43686172676572206D007688
:1001F000302E33336D5F32303134313030320003E2
:100200000200006F7074696F6E73000100010001DD
:1002100000010001000A0064000100030008000959
:10022000000A000B000C0001000200040006000898
:10023000000A000C006D5600206E6F007965730097
:10024000496E66006D696E2E00756E6C696D69741D
:1002500000756E6C696D69746564009C029702920A
:10026000028D02880283027E02790274026F024EBE
:10027000695A6E004C343335004C343330004C69CD
:10028000706F004C696C6F004C69666500506220AD
:1002900020004E694D48004E69436400556E6B6EF8
:1002A0000000980898086C0710275802019808F475
:1002B000016C070100E001029808F4016C070100DD
:1002C000E001039808DC006C070600E001049808D0
:1002D00098086C070300780005980898086C0703D5
:1002E00000780006980898086C07030078000798C3
:1002F0000898086C070300780008980898086C07AD
:100300000300780009980898086C0703007800013A
:100310000001000100010000000100B0041C0752B0
:1003200003000008075203B0044006E80300000879
:1003300007E803D0079209D606000000006C07E426
:100340000C100ED007E40C0000B80B100E0410C403
:1003500009A60E0000AC0D740E6810B80B0A0F0051
:1003600000890C740ECC10B80B0A0F0000890C74B5
:100370000EFE10B80B0A0F0000890C40066C071423
:10038000054006000078054E616D653A00456469D8
:1003900074206E616D653A00E803E303DE03D90360
:1003A000D403CD03C103B703AC03000052657365EA
:1003B00074206E616D650045646974206E616D65C1
:1003C00000437265617465206E616D6500546C69EF
:1003D0006D3A200049643A200049633A200043689E
:1003E0003A2000563A2020004261743A202000430F
:1003F000616C2E6572722E2020463A002500202D59
:100400002D3A2D2D00202000200020002520005214
:1004100045564552534520504F4C4152495459007E
:10042000706C656173652063616C2E004E2F410016
:1004300064656C746120543D20004E2F410054656A
:1004400078743D0064656C746120563D20006D61D8
:1004500078566F75743D006E6F2064542F7400459C
:1004600072726F723A0054696D653A200070726F53
:100470006772616D20636F6D706C657465002D002F
:10048000546578743D005662616C2E3D00566F7560
:1004900074203D00206C696D69743D0056696E7072
:1004A00075743D00776972657320523D0062617416
:1004B000742E20523D0020200062200074696D657A
:1004C0003A2020202020004C696D6974733A200086
:1004D0006D4168003C20006D4120006D41200020EE
:1004E000202D2D20200043684342426C446946433E
:1004F0005374534243684469435963794368446978
:100500004650435045420064542F6474002D645695
:100510000056206C696D69740017260A261B26AEEA
:1005200026A926BF260F270A27372795276327697D
:1005300027C6275A28D227662863287728000B0C5D
:100540000D0E0FED05CC05C0059E059105000007B9
:10055000080A0FED05CC059E05910500000001027B
:100560000304090FED05DE05D605CC05C0059E0583
:100570009105000000010203040506090FED05DEE8
:1005800005D605CC05C005B805A9059E0591050051
:100590000065646974206261747465727900443E18
:1005A0004320666F726D61740073746F726167656A
:1005B0002B62616C616E630073746F7261676500BA
:1005C0006661737420636861726765006469736350
:1005D00068617267650062616C616E636500636883
:1005E000617267652B62616C616E6365006368614F
:1005F000726765000106070F050002120607090A67
:100600000D0E0F04050002120607090A0D0E0F0455
:10061000051303000607040F050002120607090A66
:100620000D0E0F04051303000212110D0E0F040529
:1006300013030002120C10110D0E0F04051303001A
:100640004558542054206C696D69740054206C69BD
:100650006D697400434150206C696D697400494EA6
:100660005055542056004857204641494C55524554
:10067000004F5645524C4F41442065727200424132
:100680004C20627265616B0042415420646973635F
:100690000020436F6E6E65637420426174746572EE
:1006A0007900436F6E6E6563742042617474657285
:1006B00079210008090A0001E406DC06D406CC060C
:1006C000C4060000566D696E75733A0056706C75FD
:1006D000733A200056623270696E3A005662317089
:1006E000696E3A0056623070696E3A00F906F20699
:1006F000000076616C75653A0074656D703A200093
:100700000F0706070000706F696E7420322E0070AC
:100710006F696E7420312E0026071E0700004441C9
:1007200054413A20200076616C75653A2000320011
:100730002C013200E80348074207000054074D0728
:1007400000003330306D410035306D4100313030C4
:10075000306D410035306D410006090A0B0C0D0E5D
:10076000061F20212223241312AD07A707A1079BF0
:100770000795078F07890783077D070000566F7568
:10078000743A0056312D363A005662363A200056F9
:1007900062353A20005662343A20005662333A20DD
:1007A000005662323A20005662313A200056696E95
:1007B0003A2000FD07F407E807DC07D007C107006F
:1007C000006578706572742044414E47455221009F
:1007D00063616C69622D3E554152540074656D70C1
:1007E0002065787465726E0049206469736368617E
:1007F00072676500492063686172676500766F6C97
:10080000746167650025081B080D08000072657398
:1008100065742064656661756C740063616C6962FF
:10082000726174650073657474696E677300802506
:100830000000004B00000096000000E1000000C234
:100840000100460088137017000070176400010053
:1008500005000F0005001E0001000A007800581B6B
:10086000000001000100080000000000000000007E
:100870000000432F6D009F0898089208890880089F
:100880006578742E20416463006578742E20646559
:1008900062006465627567006E6F726D616C006402
:1008A000697361626C6564008B09800979096D095F
:1008B000630959094D094109350928091E09130918
:1008C0000A09FE08F208E808E108D908D008000083
:1008D00020202072657365740073706565643A202A
:1008E00000554152543A200062616C2E20657272AC
:1008F0003A00666F7263652062616C3A2000646939
:10090000732061677265733A2000646973636820BD
:100910002B3A00696E707574206C6F773A006361D2
:100920007020434F66663A006D696E2E492049205B
:100930003D20492F00626565703A2020202020204C
:1009400000776173746520542E3A202000442F43B1
:10095000206379636C65733A004E694364202D64AB
:10096000563A004E694D48202D64563A00656E6136
:1009700062202D64563A20200064542F64743A009B
:10098000657874726E2054434F3A00657874726EC5
:1009900020543A20202000141719181A0705061FA2
:1009A00020212223247265736574696E6720656552
:1009B00070726F6D3A00763A20382E35312E35360A
:1009C0002000A4053413E125F02BF13D11241FBEB6
:1009D000CFE5D8E0DEBFCDBF10E0A0E6B0E0E2E6B4
:1009E000FFE702C005900D92AC3EB107D9F714E0C5
:1009F000ACEEB0E001C01D92A53FB107E1F719E0F0
:100A0000CCECD9E004C02297FE010E942B3FC23CEF
:100A1000D107C9F70E942F130C94AF3F0C9400002C
:100A200086B380958170B19B02C090E001C092E0D6
:100A3000892BB29B02C090E001C094E0892BB39B4C
:100A400002C090E001C098E0892B0895882339F016
:100A5000A69AA79AD59A889A8A9A8F9A0895A6985C
:100A6000A798D59888988A988F9808958091F300D0
:100A7000882331F08091EC008F5F8093EC0002C0FE
:100A80001092EC008091F3008A3010F480E001C0F5
:100A900088E09091F300943108F084E09091F300A5
:100AA0009E3108F082E09091EC00982311F0C49AF6
:100AB0000895C49808952091A4033091A503232B91
:100AC00011F08093F3000895811102C0939A089564
:100AD0009398089587B18F7387B98B9A8D9AD79A17
:100AE000BC9A8C9A8D9A8E9A80E00E94640580E070
:100AF0000E945B0520E042E060E18DEE90E00E9404
:100B0000BD190E94663C0C94550880FF02C0AE9A45
:100B100001C0AE9881FF02C0AF9A01C0AF9882FFBA
:100B200002C0DD9A01C0DD9883FF02C0909A01C027
:100B3000909884FF02C0929A01C0929885FF02C0EB
:100B4000979A0895979808958DEE90E00C940E1A58
:100B50002FB7F8948091030190910401A0910501B1
:100B6000B09106012FBF892F9A2FAB2FBB27A7FD6E
:100B7000BA9508952FB7F89410920C0110920B01BA
:100B80008617970768F480E090E4A0E0B0E08093D7
:100B9000030190930401A0930501B093060108C0DE
:100BA00010920301109204011092050110920601A7
:100BB0008091030190910401A0910501B09106017B
:100BC000BA2FA92F982F88278093030190930401AF
:100BD000A0930501B093060181E0809302012FBF2D
:100BE0000895CF93DF93EC01C13080E6D80758F425
:100BF000C13080E4D80748F48EE00E947A3C959892
:100C0000BE018DE009C0C0E0D0E68DE00E947A3CD4
:100C1000949ABE0170548EE0DF91CF910C94503CB9
:100C2000EF92FF920F931F93CF93DF93EC018B0111
:100C30006CED79E680E00E948E0B7C01CE0145E0F0
:100C4000969587954A95E1F79093FB008093FA007B
:100C500080918003909181030E9483119093F8000A
:100C60008093F70086E10E94B4098093F4008FB767
:100C7000F894D0930C01C0930B01F0920A01E0921A
:100C8000090110930801009307018FBFDF91CF91F5
:100C90001F910F91FF90EF900895882349F080E015
:100CA0000E945A06DF981092FF001092FE000895ED
:100CB000DF9AF9CFCF93DF93C82F882319F080E014
:100CC0000E944D06DFB7F8948DE00E947A3C94981C
:100CD0008EE00E947A3C959810920201DFBFC1110C
:100CE00002C0969A0BC0969880E00E94B409EC016D
:100CF00086E00E94B409BE010E94BA051092FF006E
:100D00001092FE001092FD001092FC001092F9006B
:100D1000DF91CF9108950C941006BC018EE00C94E5
:100D2000503CCF92DF92EF92FF92CF93DF9380916E
:100D30000201811102C0CF99B1C180E00E94BD09BA
:100D40002091090130910A012817390730F480E019
:100D50000E945A0610920201A1C180910001909157
:100D60000101019690930101809300018E3591401D
:100D700008F473C010920101109200011092F60065
:100D80001092F500209171028091F900821780F491
:100D90002093F9008091FE009091FF009093FD0058
:100DA0008093FC008AE090E09093FB008093FA002F
:100DB0008091F9002817B8F42093F9008091FC0085
:100DC0009091FD009093FF008093FE0080910B01B5
:100DD00090910C0175E0969587957A95E1F790933F
:100DE000FB008093FA00C0E08091F400C81700F582
:100DF0008FE18C0F0E94B4092091F7003091F80028
:100E0000CF9B03C0821B930B04C0A901481B590B45
:100E1000CA011816190654F42091F5003091F60015
:100E2000280F391F3093F6002093F500CF5FDCCFF9
:100E30002091F5003091F6008091FE009091FF0026
:100E40002115310519F0820F931F03C0009729F077
:100E500001979093FF008093FE00CF9B02C082E039
:100E600001C083E00E94BD09EC0180E00E94BD0941
:100E70006C01E12CF12C81E00E94BD09C81AD90A4D
:100E8000E108F1088091FE009091FF00CF9B0FC018
:100E90002091070130910801B701A601421B530BB5
:100EA00061097109480F591F611D711D0EC04091E4
:100EB00007015091080160E070E04C195D096E096E
:100EC0007F09481B590B6109710980910B019091B1
:100ED0000C01480F591F611D711D6E01E12CF12C91
:100EE000C416D506E606F7060CF4EA0160910B017C
:100EF00070910C0180E090E0C090FA00D090FB006F
:100F0000E12CF12C6C1B7D0B81099109C616D706CB
:100F1000E806F90614F4C701B60120910201222364
:100F200009F45DC0C0900301D0900401E090050178
:100F3000F0900601DC01CB0162E0880F991FAA1F27
:100F4000BB1F6A95D1F7C80ED91EEA1EFB1EC092C0
:100F50000301D0920401E0920501F0920601809114
:100F6000030190910401A0910501B0910601B7FF22
:100F700008C0109203011092040110920501109212
:100F800006018091030190910401A0910501B091A7
:100F900006010197A046B10560F080E090E0A0E670
:100FA000B0E08093030190930401A0930501B093F6
:100FB00006018091030190910401A0910501B09177
:100FC0000601892F9A2FAB2FBB27A7FDBA95DF917A
:100FD000CF91FF90EF90DF90CF900C94F105CF99D7
:100FE0005DC0C0900301D0900401E0900501F09035
:100FF000060123E030E040E050E00E940A3FC20ECC
:10100000D31EE41EF51EC0920301D0920401E092AB
:101010000501F09206018091030190910401A091D5
:101020000501B0910601B7FF08C0109203011092AC
:1010300004011092050110920601409103015091A4
:101040000401609105017091060180910B0190915E
:101050000C01A0E0B0E084179507A607B70774F469
:1010600080910B0190910C01A0E0B0E0809303010E
:1010700090930401A0930501B093060180910301B0
:1010800090910401A0910501B0910601DF91CF91EB
:10109000FF90EF90DF90CF900C948D06DF91CF9171
:1010A000FF90EF90DF90CF900895DE98D698BD9A8C
:1010B000BE9ABF9A80B7806680BF8FEA86B91092C9
:1010C0000D010C94D73BCF9387FD15C0C8B320E228
:1010D0008202C0011124CF71C82B88B38F71806C3C
:1010E00088BBD69A8AE090E00E949B3E8FB7F89426
:1010F000C8BBD6988FBFCF91089594B135B12FB7A3
:10110000F89445E0849FF0011124E657FE4FE491E6
:10111000F0E0EE0FFF1FEC51FE4F892F90E0932B74
:10112000918380832FBF089510920D0108950E942E
:10113000B32890930302809302020E943629909371
:101140000502809304020C94770CE0910D01EF5F8F
:10115000E03108F0E0E085E0E89FF0011124E85775
:10116000FE4F84912091B4033091B503232B19F0E5
:10117000873009F486E00C946308CF93C0910D0189
:101180008C2F0E947D08E1E0EC0FE03108F0E0E0F8
:10119000E0930D0185E0E89FF0011124E757FE4F31
:1011A000E491E062E7B9E0910D0185E0E89FF0018C
:1011B0001124E557FE4FE491E1110E9491068091C0
:1011C0000D01811103C0CF910C949708CF91089520
:1011D0001F920F920FB60F9211242F933F934F93AC
:1011E0005F936F937F938F939F93AF93BF93EF938F
:1011F000FF930E94A508FF91EF91BF91AF919F913E
:101200008F917F916F915F914F913F912F910F90AF
:101210000FBE0F901F9018951F920F920FB60F924E
:1012200011242F933F934F935F936F937F938F93EB
:101230009F93AF93BF93EF93FF930E94BD08FF91DD
:10124000EF91BF91AF919F918F917F916F915F913E
:101250004F913F912F910F900FBE0F901F901895B7
:101260002FB7F89460910E0170910F0180911001D9
:10127000909111012FBF08950E94592F0E94863A24
:101280000E94AC290E94DF380C94270F80910E0138
:1012900090910F01A0911001B09111010196A11D33
:1012A000B11D80930E0190930F01A0931001B09394
:1012B000110180916600815019F0809366000895B5
:1012C00081EE809366000E945E0C0C9404250E94BF
:1012D000300996958795779567950895CF92DF9217
:1012E000EF92FF92CF93DF93EC010E9467096B01AD
:1012F0007C01CC0EDD1EE11CF11C0E9467096C15FF
:101300007D058E059F05C8F3DF91CF91FF90EF908B
:10131000DF90CF900895CF92DF92EF92FF92CF931C
:10132000DF93EC010E9467096B017C01CC0EDD1E8E
:10133000E11CF11C0E9467096C157D058E059F0557
:1013400018F40E943C09F6CFDF91CF91FF90EF9007
:10135000DF90CF900895E82FF0E0EE0FFF1FEE53DF
:10136000FE4F808191810895E82FF0E0EE0FFF1F7E
:10137000E858FE4F8081918108952FB7F894E82FA7
:10138000F0E0EE0FFF1FEC51FE4F808191812FBFE7
:10139000089580914C02089580912C0190912D0127
:1013A000089580911A0190911B01089580911C016C
:1013B00090911D010895E82FF0E0EE0FFF1FE25D10
:1013C000FE4F808191810895262F613110F44230C3
:1013D00040F021E030E0FC0133832283318320831D
:1013E000089550E0BA01620F711D620F711D660F02
:1013F000771F660F771F665F7F4F44E050E00C94C5
:101400006A3F282FCA01213188F4623078F470E0F5
:10141000620F711D620F711D660F771F660F771FB8
:10142000665F7F4F44E050E00C94883F0895FF9240
:101430000F931F93CF93DF9300D000D0CDB7DEB7CB
:1014400000E011E0F12CF8014591559165917491FE
:1014500049835A836B837C83AE014F5F5F4F60E0AB
:101460008F2D0E94010AF80134964591559165919E
:10147000749149835A836B837C83AE014F5F5F4FC6
:1014800061E08F2D0E94010AF394085F1F4F81E1F4
:10149000F812D9CF0F900F900F900F90DF91CF914E
:1014A0001F910F91FF9008958091A0019091A1014B
:1014B00008958091A6019091A70108958091560109
:1014C00090915701039750F080915C0190915D01DC
:1014D000039720F083E090E00C94491080E0089599
:1014E0008FB7F894E6E0F2E0119211921192119206
:1014F00092E0EA34F907C1F710924B0210924A02C7
:101500008FBF0895CF93CFB7F89410922B0110920C
:101510002A011092260110922701109228011092A0
:10152000290110922201109223011092240110929D
:10153000250110921E0110921F011092200110929D
:1015400021010E946709609316017093170180932F
:10155000180190931901CFBFCF910895CF93DF93D6
:101560000E94700A0E94820AC0912C01D0912D0124
:1015700080912C0190912D01C817D90729F48AE098
:1015800090E00E948B09F4CFDF91CF9108950E94E3
:10159000820A10921D0110921C0110921B011092E0
:1015A0001A010895EEE2F1E01192119281E0E8371C
:1015B000F807D1F708950E94700A0C94820A8FB739
:1015C000F8941092120110921301109214011092CB
:1015D00015018FBF10922D0110922C010E949408CA
:1015E0000E94DB0A0E94C70AE8E7F1E0119211921B
:1015F00081E0E23CF807D1F7089580914C02811117
:101600000AC081E00E9464050E94DF0A81E08093A5
:101610004C020C94AE0A089510924C0280E00C9497
:101620006405CF93DF9381E00E94BD09EC0180E067
:101630000E94BD098C179D0718F4C81BD90B02C066
:10164000C0E0D0E081E0C93ED34008F480E0DF9103
:10165000CF9108958F929F92AF92BF92CF92DF92D7
:10166000EF92FF92CF93DF93CDB7DEB728970FB6F7
:10167000F894DEBF0FBECDBFF82E5B01611571057A
:10168000D1F140E0682FCE0105960E94E40941E0C7
:101690006F2DCE0101960E94E4092B813C8140E030
:1016A00050E0CF80D884E12CF12C2C193D094E0953
:1016B0005F09B50180E090E08D809E80A12CB12C67
:1016C000681979098A099B090E94B83E29813A81E3
:1016D00040E050E0281939094A095B090E940A3F95
:1016E0002C0D3D1D4E1D5F1D57FF03C020E030E057
:1016F000A901C90102C080E090E028960FB6F894D5
:10170000DEBF0FBECDBFDF91CF91FF90EF90DF9096
:10171000CF90BF90AF909F908F9008958F929F929F
:10172000AF92BF92CF92DF92EF92FF92CF93DF936F
:10173000CDB7DEB728970FB6F894DEBF0FBECDBF8A
:10174000F82E5B0161157105D1F140E0682FCE01E3
:1017500005960E94E40941E06F2DCE0101960E949A
:10176000E40929813A8140E050E0CD80DE80E12C1F
:10177000F12C2C193D094E095F09B50180E090E07C
:101780008F809884A12CB12C681979098A099B094A
:101790000E94B83E2B813C8140E050E02819390975
:1017A0004A095B090E940A3F2C0D3D1D4E1D5F1D1D
:1017B00057FF03C020E030E0A901C90102C080E06A
:1017C00090E028960FB6F894DEBF0FBECDBFDF9134
:1017D000CF91FF90EF90DF90CF90BF90AF909F9010
:1017E0008F9008950C94DF0A8250893130F4E82FED
:1017F000F0E0E758FF4F8081089581E00895CF938E
:10180000DF93E82FF0E0EE0FFF1FE858FE4FC08196
:10181000D1810E94F40B882319F0813029F00AC08D
:1018200081E0E39740F404C081E0C935D24018F468
:1018300080E001C081E0DF91CF910895CF93C0E0B7
:101840008FE18C0F0E94FF0B882329F0CF5FC630F9
:10185000B9F786E001C08C2FCF9108951F93CF93E5
:10186000DF931F92CDB7DEB7182F69830E94F40B68
:10187000E12FF0E0EE0FFF1FE858FE4F4981682F7F
:10188000808191810F90DF91CF911F910C94A618C8
:101890002FB7F89460911201709113018091140197
:1018A000909115012FBF2DE730E040E050E00E94FD
:1018B000E83EBB27A52F942F832F08952091A601E2
:1018C0003091A7018091120190911301A091140110
:1018D000B0911501820F931FA11DB11D80931201BC
:1018E00090931301A0931401B09315010895CF9321
:1018F000DF9380914C02882309F474C020914A023E
:1019000030914B0224363105E0F4E4EEF1E0C6E01C
:10191000D2E04191519188819981AA81BB81840F44
:10192000951FA11DB11D89939993A993B99382E045
:10193000E630F80771F72F5F3F4F30934B0220934B
:101940004A022091E4013091E501809126019091B5
:101950002701A0912801B0912901820F931FA11D99
:10196000B11D8093260190932701A0932801B09385
:1019700029012091E6013091E701809122019091A7
:101980002301A0912401B0912501820F931FA11D75
:10199000B11D8093220190932301A0932401B09361
:1019A00025012091F2013091F30180911E01909167
:1019B0001F01A0912001B0912101820F931FA11D51
:1019C000B11D80931E0190931F01A0932001B0933D
:1019D000210180912A0190912B01019690932B0176
:1019E00080932A01DF91CF91089590E0880F991F8D
:1019F000FC01E858FE4F208131816217730718F40B
:101A0000261B370B04C0AB01421B530B9A01FC0190
:101A1000E25DFE4F2730310518F01182108206C0BA
:101A2000208131812F5F3F4F31832083FC01E858B3
:101A3000FE4F718360830895AF92BF92CF92DF9281
:101A4000EF92FF920F931F93CF93DF931F92CDB727
:101A5000DEB7A0907801B090790180917A019091E1
:101A60007B018A159B0518F4A81AB90A02C0A12C9B
:101A7000B12CB50182E10E94F50C209188013091D2
:101A8000890180918A0190918B0100918C011091C4
:101A90008D012817390720F4BC01621B730B02C0AB
:101AA00060E070E08017910718F4081B190B02C062
:101AB00000E010E08FE10E94F50CB80180E20E9486
:101AC000F50C0EE811E091E2F801619171918F013E
:101AD000892F99830E94F50C99819F5F9532A1F718
:101AE0000E941E0CF82E80E000E010E08F1569F0D7
:101AF000EFE1E80FF0E0EE0FFF1FE858FE4F208106
:101B00003181020F131F8F5FF1CFB80183E10E9473
:101B1000F50C0115110581F00A151B0520F495013E
:101B2000201B310B03C098012A193B09293E334081
:101B300018F4580113E102C012E1F12CB50184E15F
:101B40000E94F50C6F2D70E086E10E94F50C612F6C
:101B500070E085E10E94F50C0E94480C8C010E9407
:101B60003029882329F0E0907E01F0907F010BC09E
:101B70000E94AD28882329F0E0907C01F0907D013F
:101B800002C0E12CF12CB70187E10E94F50CB801ED
:101B900089E10E94F50C9701D5010E94A23E30E137
:101BA000C32E37E2D32EE12CF12CA70196010E941F
:101BB000E83EB90188E10E94F50C9801D5010E9428
:101BC000A23EA70196010E94E83EB9018AE10F906A
:101BD000DF91CF911F910F91FF90EF90DF90CF9009
:101BE000BF90AF900C94F50CBF92CF92DF92EF9222
:101BF000FF920F931F93CF93DF932FB7F8948091A9
:101C00004A0290914B022FBF84369105C1F5809115
:101C10002C0190912D01019690932D0180932C0120
:101C200006E012E0C2ECD1E0B12C54E6C52ED12C76
:101C3000E12CF12CF80161917191819191918F01C9
:101C4000A70196010E94E83E29933993B9018B2D93
:101C50000E942A0BBC018B2D0E94F50CB394F1E17C
:101C6000BF12E8CF0E941C0DDF91CF911F910F9101
:101C7000FF90EF90DF90CF90BF900C94700ADF91AF
:101C8000CF911F910F91FF90EF90DF90CF90BF9079
:101C900008954F925F926F927F928F929F92AF9230
:101CA000BF92CF92DF92EF92FF920F931F93CF9349
:101CB000DF93CDB7DEB728970FB6F894DEBF0FBE1F
:101CC000CDBF0E946709C0901601D0901701E09027
:101CD0001801F09019016C197D098E099F09613373
:101CE00075478105910508F49BC02FB7F8940091C2
:101CF0002A0110912B0140902601509027016090FD
:101D00002801709029016091220170912301809136
:101D100024019091250180901E0190901F01A090B8
:101D20002001B09021012FBF6D837E838F83988720
:101D30000E94820A20911C0130911D012F5F3F4FAC
:101D400030931D0120931C016801E12CF12C6D8161
:101D50007E818F819885A70196010E94E83E2983A4
:101D60003A834B835C83C301B201A70196010E94B1
:101D7000E83EB90180E00E942A0B3C0169817A812A
:101D800081E00E942A0B8615970518F4681A790AD3
:101D900002C0612C712C4090B0015090B1016414CC
:101DA000750420F0B3018CE10E94F50CB3016419B5
:101DB00075098BE10E94F50CC501B401A7019601DC
:101DC0000E94E83EB90187E00E942A0B20911A0187
:101DD00030911B0190931B0180931A01BC01621B7F
:101DE000730B660F771F8DE10E94F50CB8018EE131
:101DF00028960FB6F894DEBF0FBECDBFDF91CF910E
:101E00001F910F91FF90EF90DF90CF90BF90AF9018
:101E10009F908F907F906F905F904F900C94F50CF7
:101E200028960FB6F894DEBF0FBECDBFDF91CF91DD
:101E30001F910F91FF90EF90DF90CF90BF90AF90E8
:101E40009F908F907F906F905F904F9008950E9429
:101E5000F40D0C94490E109212011092130110927D
:101E60001401109215010C94DB0A809173020895FD
:101E700080917102811113C00E94C909882381F0E9
:101E80000E94CC0920914D0230914E02821B930B8F
:101E90009C0181E02530310518F080E0089581E053
:101EA0000895815E0C94B4090F931F93CF93DF9331
:101EB00010E0CFEFDFEF00E080917302181760F4BD
:101EC000812F0E94510F8C179D0710F0CE0101C089
:101ED000012F1F5FEC01F0CF802FDF91CF911F9179
:101EE0000F910895CF93DF9390917102911104C0E7
:101EF000DF91CF910C94510F90915702C82FD0E0F1
:101F0000992391F00E94510FCC0FDD1FFE01E85A7A
:101F1000FD4FCC59DD4F2081318148815981241BEF
:101F2000350B280F391F07C0FE01EE0FFF1FE85ABF
:101F3000FD4F20813181C901DF91CF910895CF9369
:101F4000C82F80917102882341F0C11106C00E9400
:101F5000CC0990934E0280934D02C09371020E946F
:101F6000670960934F0270935002809351029093DF
:101F700052020E94D20A80917002811104C08C2FFB
:101F8000CF910C948505CF910895EF92FF920F9316
:101F90001F93CF93DF9381E00E94260586E10E9484
:101FA000B4098093730204E612E038E5E32E32E0D0
:101FB000F32EC0E0D0E08091730290E0C817D907FB
:101FC0006CF48C2F0E94510FF801819391938F0133
:101FD000F701819391937F012196EDCF10927102C9
:101FE0001092700280E00E949F0F10924E02109299
:101FF0004D0210924F021092500210925102109214
:102000005202DF91CF911F910F91FF90EF900895B1
:1020100080E00E949F0F81E08093700208950E94EB
:10202000081080E00C942605FF920F931F93CF9326
:10203000DF93809172020E94720FEC01F12C01E09B
:1020400010E080917302F816E8F48F2D0E94720F51
:10205000AC0180917102802321F0C417D50778F478
:102060000DC02091B2033091B3032F5F3F4F3695DF
:1020700027952C0F3D1F2417350708F4102B000F50
:10208000F394DFCF812FDF91CF911F910F91FF90BC
:1020900008951F93CF93DF93EC0110E080917302BA
:1020A000181748F48FE1810F0E94DB098C179D07F8
:1020B00020F01F5FF3CF81E001C080E0DF91CF917E
:1020C0001F910895BF92CF92DF92EF92FF920F93EC
:1020D0001F93CF93DF938AE090E00E9449108823FA
:1020E00009F462C00E94540F809372020E94510F43
:1020F0008C0162E083E892E00E940E1C0817190729
:1021000048F178E5E72E72E0F72EE4E6CE2EE2E025
:10211000DE2EC0E0D0E0BB24B3948091730290E047
:10212000C817D907CCF48C2F0E94510FF701819367
:1021300091937F01F601819391936F01801B910B25
:102140002091B2033091B3032817390708F4B12C5A
:102150002196E3CFBB24B394109257020E946709E3
:1021600060935302709354028093550290935602E9
:10217000BB2059F0DF91CF911F910F91FF90EF900D
:10218000DF90CF90BF900C940810109270020E94C4
:102190001410DF91CF911F910F91FF90EF90DF907E
:1021A000CF90BF900C949F0FDF91CF911F910F9113
:1021B000FF90EF90DF90CF90BF900895CF938091E4
:1021C0005702811119C081E08093570280917202F9
:1021D0000E94510FC0E080917302C81768F48C2FE1
:1021E0000E94510FEC2FF0E0EE0FFF1FEC59FD4F56
:1021F00091838083CF5FEFCFCF9108950F931F938B
:102200000E946709009153021091540220915502D7
:1022100030915602601B710B820B930B28EE33E05A
:1022200040E050E00E94E83EC9011F910F910895DF
:1022300083E090E00E9449108823C9F080917102E8
:10224000811103C00E94621012C00E94DE100E9421
:10225000141090E0809590952091710230E08223D7
:102260009323892B81F40E94FE104F9760F40E9403
:10227000380F882311F082E008958091700288233E
:10228000D1F381E0089580E00E949F0FF0CF1F936B
:10229000CF93DF93EC0110E080917302181780F464
:1022A000812F0E94510F8C179D0710F081E009C00B
:1022B000812F0E94720F8C179D07C0F71F5FECCF14
:1022C00080E0DF91CF911F9108951F93CF93DF930B
:1022D000EC0110E080917302181780F4812F0E94A6
:1022E000510FC817D90710F081E009C0812F0E9453
:1022F000720FC817D907C0F71F5FECCF80E0DF91DE
:10230000CF911F91089560917302662329F070E0C8
:102310000E94D43ECB01089580E090E008950E9491
:10232000CC140E94972280E00E94640585E00E9400
:102330001A380E94362F88E00E941A3881E00C94E7
:1023400064050E94CC140E94A52286E00E941A38DF
:102350000E94362F88E00C941A38E0917402F091B4
:1023600075028591949110927602FC010994E09196
:102370007402F0917502329685919491FC01099452
:10238000E0917402F0917502349685919491FC016C
:102390000994CF93DF931F92CDB7DEB7811109C0A7
:1023A0000E94AF210E94B7110E940C0B0E94A11144
:1023B0000FC0813059F469830E94AF210E94B71188
:1023C0006981611105C00E948F1102C081E001C0C6
:1023D00080E00F90DF91CF9108958F929F92AF92FE
:1023E000BF92CF92DF92EF92FF920F931F93CF9302
:1023F000DF93EC01A62E0E94AD110E9491210E9454
:102400005B2F0E94CC14D12C82E0C82EE12CF12C41
:10241000BB24B39492E0992E882483940E94F937C8
:10242000811106C0FE01ED0DF11D84910E94A725CA
:102430000E945A14182F883051F40E942B148111D5
:1024400094C080917602823009F092C08EC0809153
:102450007602813021F4111102C0909276028091AF
:102460007602823009F052C0FE01ED0DF11DE491BB
:10247000E23031F0E330A1F1E13009F044C035C081
:10248000CF9915C0123019F46FEF7FEF04C01430EC
:1024900071F461E070E083E892E00E94621D609157
:1024A00088027091890281E090E00E94F12686996D
:1024B0003FC0123019F46FEF7FEF04C01430C1F544
:1024C00061E070E083E892E00E94491D609186021D
:1024D0007091870241E081E090E00E94162728C0B9
:1024E000869B49C0CF9B47C023C0123019F46FEFC1
:1024F0007FEF04C01430E1F461E070E083E892E023
:102500000E948B1D15C01092760212C0143049F43F
:10251000ED2DF0E03196EC0FFD1FE491E11143C089
:1025200007C0123029F4DD2019F00E946B23DA94E1
:10253000BB2081F00E94762FC82E6A2D0E94C911FF
:10254000B82E882339F00E94CC09E816F906A9F5BF
:10255000B11003C0A1103CC0B12C113009F05ECF06
:102560000E94AF210E94B71133C01092760277CF3C
:102570008092760274CF123041F40AE020E030E01D
:1025800048EE5DEF6FEF7FEF09C0143089F60AE087
:1025900020E030E048EE5DEF61E070E086E893E037
:1025A0000E94C92EC5CF81E0C81203C081E00E94FD
:1025B00064050E946B23D394BBCF0E94CC097C019D
:1025C0000E94C011C82E6A2D0E94C911B82EC0CF1A
:1025D0008C2DDF91CF911F910F91FF90EF90DF90A5
:1025E000CF90BF90AF909F908F90089560E087E765
:1025F00092E00E943C1B87FD0AC0811102C00C942E
:102600003D35992787FD909501970C94B22B08953D
:1026100078940E946A050E94CB3B0E9423290E9465
:10262000A3290E94F20B0E942D3E0E947E356FEE80
:1026300071E08EED91E00E947A2288EE93E00E9494
:102640006E0980E00E94553B0E942C188091B803CF
:102650009091B903079710F40C94F32208950E9407
:1026600008130E94F612FDCF6FEF71E087E792E04A
:102670000E944E1A86E990E0909378028093770248
:10268000EBE7F2E08081805E80830895FC01248185
:102690002052621710F40C94411A862F90E0821B8E
:1026A00091090E94D51C6EE00C940F16CF93DF9316
:1026B000EC010E94C4148B819C810E940C160E9424
:1026C000C8146A8188819981DF91CF910C94A415F7
:1026D000FC0187818F3118F48F5F8783089586818D
:1026E0008F5F86830895FC018781882319F08150CC
:1026F0008783089586818150868308950F931F9361
:10270000CF93DF93FC01C681D0E06D2F80E00E9463
:10271000BE1410E11C0F01E00C0F8C2F0E945D16FF
:10272000011711F0C02FF7CFDF5FD23011F0C12FAA
:10273000ECCFDF91CF911F910F9108951F93CF930D
:10274000DF93EC018DEE90E00E9481191FEF8E81E6
:10275000181721F0CE010E947E131E818F81682FF1
:1027600070E094E0759567959A95E1F78F700E94F7
:10277000BE140E945A14823049F0843019F081301E
:1027800049F413C0CE010E946813E1CFCE010E942C
:102790007313DDCF8830D9F68D81E881F981E80F98
:1027A000F11D8F819E81890F8083DF91CF911F91D1
:1027B0000895FC01718360834283348323831582EF
:1027C00080E2868317820895CF93DF93EC018DEE2C
:1027D00090E00E9481190E94CC14CE010E945613F1
:1027E00061E08D810E94BE140E945A148230B1F0C3
:1027F000843041F08130C1F48DEE90E00E947A196E
:1028000080E026C04D81242F30E08A8190E001973E
:10281000281739072CF74F5F4D83E2CF8D8188232E
:10282000F9F281508D83DCCF8830D1F682E00E94AE
:10283000AD14823048F083E00E941A388DEE90E0AB
:102840000E947A1981E004C0CE010E949E13C3CF7A
:10285000DF91CF9108958091810208950C94100525
:10286000E0918102F0E0EE0FFF1FE55FFD4F8591E3
:1028700094910895CF93DF93D82F0E941005C82F0D
:102880008D1741F082E390E00E948B090E941005B1
:10289000DC2FF5CF10928102109280028093820289
:1028A000882319F080E00E94273880918202DF910E
:1028B000CF910895FF920F931F93CF93DF93C0E0C2
:1028C000D0E0F12C0AEF10E040918102242F30E09B
:1028D000F901EE0FFF1FE95DFD4F65917491C8018D
:1028E0000E94D43E6F5F7F4FF901EE0FFF1FC617A6
:1028F000D707A8F40E941005F82E81E090E00E940E
:102900008B0980918202F81641F08F2DDF91CF91D3
:102910001F910F91FF900C943A142196D5CFFF2070
:10292000A1F0209180022F5F20938002E75EFD4F8F
:102930008591949130E02817390738F0463018F423
:102940004F5F409381021092800280918202DF915A
:10295000CF911F910F91FF900895CF93DF93D82FC0
:10296000C09182020E945A14909181029D1711F029
:102970008C17C1F3892FDF91CF910895462F682FCF
:102980008DEE90E00C94451960E080E00C94BE144C
:1029900061E080E00C94BE148DEE90E00C943E1942
:1029A000CF93DF93FC01DB018C91882389F0C081F8
:1029B000D1814883808191810196918380838C911C
:1029C00081508C93882321F00190F081E02D1082BA
:1029D000DF91CF910895BF92CF92DF92EF92FF9255
:1029E0000F931F93CF93DF93EC018B017A01411575
:1029F000510501F1CA010E94433FF8019081B82EB0
:102A0000981708F4B92ECB2CD12CA601B7018881D8
:102A100099810E944C3F288139812C0D3D1D3983BD
:102A20002883F80180818B198083882319F0E8813D
:102A3000F9811082DF91CF911F910F91FF90EF905C
:102A4000DF90CF90BF900895CF92DF92FF920F93C7
:102A50001F93CF93DF9300D0CDB7DEB76C018B010E
:102A6000BA0180E090E049835A830E94772EF82EC5
:102A7000D8018C9149815A818F1570F44FE3B801C8
:102A8000C6010F900F90DF91CF911F910F91FF9092
:102A9000DF90CF900C94D014F601208131812F0D5E
:102AA000311D31832083D8018C918F198C93882319
:102AB00021F00190F081E02D1082F9012AE030E050
:102AC000FF2069F0CA01B9010E94D43E405DBAE01E
:102AD0006B9F401911244293FA94AB01F1CF0F90F0
:102AE0000F90DF91CF911F910F91FF90DF90CF90CA
:102AF00008950F931F93CF93DF93CDB7DEB72B9736
:102B00000FB6F894DEBF0FBECDBF8E010F5F1F4F13
:102B10001A87098727E02B87AC01BE01655F7F4FCD
:102B2000CE0109960E942415B8018DEE90E00E9416
:102B3000311A2B960FB6F894DEBF0FBECDBFDF91D2
:102B4000CF911F910F9108950F931F93CF93DF9310
:102B5000CDB7DEB761970FB6F894DEBF0FBECDBF1D
:102B60000097D1F0613108F060E1062F10E0A80174
:102B7000BC01CE0101960E945B3FE1E0F0E0EC0F6A
:102B8000FD1FE00FF11F1082BE016F5F7F4F8DEEC2
:102B900090E00E94311A01C080E061960FB6F8946F
:102BA000DEBF0FBECDBFDF91CF911F910F91089572
:102BB0000F931F93CF93DF93CDB7DEB761970FB617
:102BC000F894DEBF0FBECDBF0097D1F0613108F0A1
:102BD00060E1062F10E0A801BC01CE0101960E9421
:102BE0004C3FE1E0F0E0EC0FFD1FE00FF11F108221
:102BF000BE016F5F7F4F8DEE90E00E94311A01C0E1
:102C000080E061960FB6F894DEBF0FBECDBFDF91B6
:102C1000CF911F910F91089560E10C94D815CF9238
:102C2000DF92EF92FF920F931F93CF93DF93CDB775
:102C3000DEB762970FB6F894DEBF0FBECDBF009728
:102C400019F1613108F060E16C018E010F5F1F4FD7
:102C500078018E2D801B861768F4C6016A8B0E944E
:102C60007A3FF70181937F01FFEFCF1ADF0A6A896C
:102C70008111EFCFF801E60FF11D1082B8018DEE42
:102C800090E00E94311A01C080E062960FB6F8947D
:102C9000DEBF0FBECDBFDF91CF911F910F91FF908F
:102CA000EF90DF90CF900895882319F08CE392E0A5
:102CB00002C088E392E00C940C16682F8DEE90E031
:102CC0000C94101ACF93DF93D82FC0E0CD1729F0C2
:102CD00080E20E945D16CF5FF9CF8C2FDF91CF91FC
:102CE000089580E10C946216CF93DF931F92CDB7C5
:102CF000DEB7682F64303CF080E269830E945D1685
:102D000069816150F7CF80E492E00F90DF91CF911D
:102D10000C94D8156AE00E94C83E80E3890F0C9499
:102D20005D16DF92EF92FF920F931F93CF93DF9385
:102D3000EC01F62ED42E16160CF089C068EE73E066
:102D40000E94D43E8B0180E090E00E94772E24E028
:102D5000E22EE80EEF142CF480E20E945D16FA9445
:102D6000F9CFFE14E4F0D1101AC0BE0180E090E06B
:102D70000E94772E182FFA941F1524F480E20E94E7
:102D80005D16F9CFCE010E9479158DE6DF91CF91C6
:102D90001F910F91FF90EF90DF900C945D162E2DF8
:102DA000332727FD3095245031094F2D552747FDF6
:102DB00050954217530754F48F2DDF91CF911F91F7
:102DC0000F91FF90EF90DF900C947416C8010E9451
:102DD0007915CE0168EE73E00E94D43EEC011F2D00
:102DE0001E1993E0F92EF10E84E0810F18161CF4E1
:102DF0008EE20E945D1602E0010F1F1444F4CE0122
:102E000064E670E00E94D43E862F0E948A16CE01AE
:102E100064E670E00E94D43EEC011F5F10163CF4A3
:102E20006AE070E00E94D43E862F0E948A16111636
:102E300074F4CE016AE070E00E94D43EDF91CF913D
:102E40001F910F91FF90EF90DF900C948A16DF9105
:102E5000CF911F910F91FF90EF90DF900895EF9227
:102E6000FF920F931F93CF93DF93EC01F62E16166C
:102E70000CF059C064E670E00E94D43E8B0180E003
:102E800090E00E94772E33E0E32EE80EEF142CF44E
:102E900080E20E945D16FA94F9CF2E2D332727FD8C
:102EA0003095235031094F2D552747FD5095421736
:102EB00053074CF48F2DDF91CF911F910F91FF900D
:102EC000EF900C947416C8010E947915CE0164E647
:102ED00070E00E94D43EEC010F2D0E1912E0100F8D
:102EE00083E0800F18161CF48EE20E945D16FF240A
:102EF000F394F00E111644F4CE016AE070E00E94E3
:102F0000D43E862F0E948A161F146CF4CE016AE00C
:102F100070E00E94D43EDF91CF911F910F91FF90FE
:102F2000EF900C948A16DF91CF911F910F91FF9033
:102F3000EF900895BF92CF92DF92EF92FF920F939E
:102F40001F93CF93DF938C01D62EB42EC22E16166C
:102F5000ACF52111DA94B80180E090E00E94772E60
:102F6000C82FD0E0ED2CFF24E7FCF094CE15DF0550
:102F70002CF48B2D0E945D16DA94F4CFCC2019F03E
:102F80008DE20E945D16EC16FD0664F48D2DDF9136
:102F9000CF911F910F91FF90EF90DF90CF90BF9056
:102FA0000C947416C801DF91CF911F910F91FF907F
:102FB000EF90DF90CF90BF900C947915DF91CF9177
:102FC0001F910F91FF90EF90DF90CF90BF900895E9
:102FD00020E00C949A17CF93DF936CE370E00E948B
:102FE000D43E9B01EC0140E363E0C9010E94E81775
:102FF0008AE30E945D1640E362E0CE01DF91CF914B
:103000000C94E81740E20C94E817292F221F22277E
:10301000221F19F091958195910940E20C949A171D
:10302000161634F461500E942F1783E40C945D1639
:103030000895161634F461500E94021885E20C942B
:103040005D16089563303CF062500E94021885E3DB
:1030500092E00C940C160895FF920F931F93CF9358
:10306000DF93CDB7DEB728970FB6F894DEBF0FBE5B
:10307000CDBF4EE0F42EF9821FE11A8301E10B83EC
:103080000C830D830E830F831887AE014F5F5F4F54
:1030900060E08DEE90E00E948919F9821A830B831B
:1030A0000C831D831E831F831887AE014F5F5F4F04
:1030B00061E08DEE90E00E948919F9821A831B83EA
:1030C0001C831D831E831F831887AE014F5F5F4FD4
:1030D00062E08DEE90E00E94891928960FB6F89470
:1030E000DEBF0FBECDBFDF91CF911F910F91FF903B
:1030F00008950F931F93CF93DF93062F142F64E649
:1031000070E00E94D43EEB0180E20E945D1680E2F6
:103110000E945D16C436D10548F480E20E945D1617
:10312000CA30D10518F480E20E945D16CE010E94DB
:103130007915802F0E945D16812F0E945D1680E216
:10314000DF91CF911F910F910C945D160F931F93F8
:10315000CF93C62F1416BCF56FEF640F0C2F10E041
:103160000830110508F5F801E65DFF4F0C94293F82
:1031700016E51BC040E201C048E667E5CF911F910C
:103180000F910C947918642FCF911F910F910C948B
:10319000101814EF07C00E94051885E50FC06EEFE8
:1031A000640F11E440E002C015E541E00E94911671
:1031B000812F0E945D16C53031F488E6CF911F91B2
:1031C0000F910C945D16CF911F910F910895462F8A
:1031D00065E00C94A618462F60E00C94A618462FC4
:1031E00061E00C94A618462F66E00C94A618AC98E3
:1031F00081E090E00E949B3EAC9A81E090E00E94CA
:103200009B3EAC9884E690E00C949B3EA39AA29AD5
:10321000A19AA09A60FF02C0AB9A01C0AB9861FF6F
:1032200002C0AA9A01C0AA9862FF02C0A99A01C06E
:10323000A99863FF02C0A89A01C0A8980C94F71837
:103240001F93CF93DF93EC01162F442311F0AD9A17
:1032500001C0AD98612F70E084E0759567958A95FF
:10326000E1F7CE010E940619612FCE01DF91CF91C7
:103270001F910C94061940E00C94201961E00E9403
:103280003B1980ED97E00C949B3ECF93DF93CDB735
:10329000DEB728970FB6F894DEBF0FBECDBF28E08B
:1032A000E1E7F0E0DE01119601900D922A95E1F739
:1032B000FC012481421710F04FEF420FFE013196BE
:1032C000E40FF11DE40FF11D2081260F2068622F0D
:1032D00028960FB6F894DEBF0FBECDBFDF91CF9119
:1032E0000C943B19FC016181262F246021836C60C2
:1032F0000C943B19FC0161816E7F618368600C94C2
:103300003B19FC016181262F2160218369600C94A7
:103310003B19CF92DF92EF92FF920F931F93CF93BF
:10332000DF9300D0CDB7DEB77C01677088E0689F7F
:10333000B00111246064C70149835A830E943B197C
:103340004981C42E5A81D52E00E010E0F60161912A
:103350006F0141E0C7010E9420190F5F1F4F083025
:103360001105A1F70F900F90DF91CF911F910F9151
:10337000FF90EF90DF90CF900895CF93DF93EC0113
:10338000423018F08881886088834C831D82222314
:1033900029F0413019F488818460888380E593ECBA
:1033A0000E949B3EAD98AC9863E0CE010E94061946
:1033B00084E991E10E949B3E63E0CE010E940619E0
:1033C00084E991E10E949B3E63E0CE010E940619D0
:1033D00086E990E00E949B3E62E0CE010E940619C1
:1033E00068816062CE010E943B1984E08983CE012E
:1033F0000E947219CE010E943E1982E08A8366E023
:10340000CE01DF91CF910C943B19A59AA49AFC01AF
:10341000108220E041E060E10C94BD190C94051A83
:1034200041E00E94201981E00895EF92FF920F93EE
:103430001F93CF93DF938C01F42EC62FD72FE42E4A
:10344000E60EEC1631F0699141E0C8010E942019A6
:10345000F8CF8F2DDF91CF911F910F91FF90EF90BB
:1034600008956115710559F0FB0101900020E9F7FD
:10347000AF0141505109461B570B0C94151A80E0BF
:103480000895FC0127818085E22FF82FE60FF11DBA
:10349000E60FF11D859194910C940C160F931F93D8
:1034A000CF93DF93EC018B01CB010E94582E682F44
:1034B000CE010E94B11A8CE990E099838883188725
:1034C0000F83DF91CF911F910F910895DF92EF92BB
:1034D000FF920F931F93CF93DF93EC01F62E698732
:1034E0001A8681E08D8382E0D82EEE24E3948E014B
:1034F000075F1F4F0E945A14482F823011F084300A
:1035000061F4E881F9810280F381E02D6F2DCE0115
:103510000995F986DA86ED8204C0813089F0883019
:1035200079F0C8010E944A2F8111ED828D81882394
:1035300019F0CE010E94DE1A8A858F5F8A87DACF62
:103540008FEF898781E08E838D83483009F080E09A
:10355000DF91CF911F910F91FF90EF90DF90089531
:103560000895FC0182EA90E09183808312821382A5
:10357000648381E0858386830895FC012281211183
:1035800003C081E082830895438130E0240F311D20
:10359000848190E001972817390714F44F5F438323
:1035A0000895FC018281882319F081508283089557
:1035B0008381882311F08150838308951F93CF93D3
:1035C000DF93EC0110E0612F80E00E94BE1480E2E6
:1035D0000E945D16E881F9816B81610F0190F08195
:1035E000E02DCE0109950E9471161F5F123059F728
:1035F0006A8180E00E94BE148EE30E945D166A819B
:103600008FE00E94BE148CE30E945D161D82DF9144
:10361000CF911F9108950F931F93CF93DF93EC01E8
:103620000E945A14182F0E94F937882321F081E054
:103630008D838FE71CC00B818A81080F123031F017
:10364000143039F4CE010E94BD1A03C0CE010E948D
:10365000D11A8B819A81890F081711F081E08D832F
:103660008D81882319F0CE010E94DE1A812FDF910F
:10367000CF911F910F910895EF92FF921F93CF93D7
:10368000DF931F92CDB7DEB77C0181E0F701858320
:1036900011E0C70169830E940B1B6981811102C07F
:1036A000F7011682F7019681911108C0883031F434
:1036B00081E0868383819281890F09C0662311F09E
:1036C000F7011583813029F79111E3CF8FEF0F9028
:1036D000DF91CF911F91FF90EF9008950F931F936B
:1036E000CF93DF93EC018B0150E00E9424154AE355
:1036F000B801CE01DF91CF911F910F910C94D0149E
:10370000EF92FF920F931F93CF93DF9300D01F92FE
:10371000CDB7DEB78C01462F0B969A8389838EE056
:103720008B83D801EC91F0E0EE0FFF1FE55AFD4FBF
:10373000E590F490BE016D5F7F4FCE0101960E942F
:103740006E1BA701BE016D5F7F4FCE0101960E94E7
:10375000EB1440E2BE016D5F7F4FCE0101960E94E7
:10376000D014F80141815281BE016D5F7F4FCE01BF
:1037700001960E9424154FE2BE016D5F7F4FCE017E
:1037800001960E94D014D80117964D915C9118971C
:10379000BE016D5F7F4FCE0101960E9424150F90F0
:1037A0000F900F90DF91CF911F910F91FF90EF90AD
:1037B0000895CF93DF9300D01F92CDB7DEB7462F89
:1037C0002EE02B830B969A838983BE016D5F7F4F1A
:1037D000CE0101960E946E1B0F900F900F90DF910B
:1037E000CF91089529E1289FB001299F700D1124E0
:1037F0006E567F4F49E150E083E892E00C946A3FB7
:1038000029E1289FB001299F700D11246E567F4F2A
:1038100049E150E083E892E00C94883FDC01EC91B0
:10382000B6E0EB9FF0011124E60FF11DEE0FFF1F34
:10383000E15FFC4F859194910895DC01EC9146E0A5
:10384000E49FF0011124E60FF11DEE0FFF1FE15F71
:10385000FC4F8591949117962D913C911897AC014E
:10386000429FC001439F900D529F900D11240895D7
:10387000FC01A181B2812091A8033091A9030E948B
:10388000A23E24E630E040E050E00E94E83E293EBF
:10389000FDEF3F074105510520F028EE3DEF40E0E8
:1038A00050E0C9010895FC012081213029F42091C4
:1038B0009E0330919F0309C0223029F420919C037C
:1038C00030919D0302C020E030E0FC0187819085AB
:1038D000AC01249FC001259F900D349F900D1124B1
:1038E000089580919803909199030895FC01608157
:1038F000FBE06F9FB00111246F557D4F4BE050E00E
:103900000C943A3FDC01EC91F0E0EE0FFF1FE55A1A
:10391000FD4F859194910C94D81560E170E00C9462
:10392000821CCF93DF93EC01888160E0811108C095
:10393000CE010E941D1C67E00E94EF1887E011C0B5
:10394000CE010E941D1C65E00E94EF188FE20E94CC
:103950005D168F8198850E94791583E40E945D161B
:1039600088E0DF91CF91089566E0FC018381948126
:103970000E94EB1886E0089566E0FC01858196813F
:103980000E94EB1886E00895FC0181819281883EB7
:10399000FDEF9F0729F481E592E00E940C1603C019
:1039A00067E00E94E71888E0089529E1AC01249FB0
:1039B000C001259F900D112483569F4F08950F93AA
:1039C0001F93CF93DF93CDB7DEB7A6970FB6F894CA
:1039D000DEBF0FBECDBF8C01AB01BC01CE01019695
:1039E0000E94661ECE0101960E94EB1E89E1FE0137
:1039F0003C96D80101900D928A95E1F7A6960FB6F4
:103A0000F894DEBF0FBECDBFDF91CF911F910F9114
:103A10000895FC012081260F2A3040F01616170663
:103A20001CF4FC01108203C029E0FC0120830C94EB
:103A3000761C61E00E941D1C9C0140E050E060E0AB
:103A400074EB84EC94E00E94E83E29358BE1380762
:103A50004105510520F028E53BE140E050E0C90177
:103A6000089561E00E941D1C9C0140E050E060E46C
:103A70007BE48CE490E00E94E83E213D87E038073B
:103A80004105510520F020ED37E040E050E0C9014C
:103A900008950F931F93CF93DF9300D0CDB7DEB778
:103AA0008C0169837A830E94191DAC0169817A8136
:103AB000C80103960F900F90DF91CF911F910F9146
:103AC0000C942E2F0F931F93CF93DF9300D0CDB77D
:103AD000DEB78C0169837A830E94311DAC01698154
:103AE0007A81C80105960F900F90DF91CF911F91B9
:103AF0000F910C942E2FDC01EC91BCE0EB9FF001B8
:103B00001124EF5EFC4F6591749184EF95E60E945D
:103B1000D43ECB010895EF92FF920F93CF93DF93A2
:103B200000D0CDB7DEB77C0169837A830E947B1D0C
:103B3000F701208169817A81211103C022E330E0FD
:103B400002C020E030E001E0AC01C70107960E940E
:103B5000C92E0F900F90DF91CF910F91FF90EF90B2
:103B60000895CF93DF93EC010E947B1D2F81388550
:103B70008217930710F498878F83CE010E94191D36
:103B80002B813C818217930710F49C838B83CE0199
:103B90000E94311D2D813E818217930710F49E8370
:103BA0008D83DF91CF9108950F93CF93DF93EC0135
:103BB00004E620E030E048EE5DEF01960E94C92E59
:103BC00089819A819C838B832881233039F49C01DD
:103BD00036952795369527953C832B839E838D8339
:103BE000CE01DF91CF910F910C94B11D0F931F93D4
:103BF000CF93DF934BE050E063EE72E083E892E016
:103C00000E943A3F83E892E00E94B11DC0E0D0E0FC
:103C10008E010F5F1F4FB80183E892E00E94D91B0D
:103C2000CE010E94001C0032110511F0E801F0CF16
:103C3000DF91CF911F910F910895FC0181859285AD
:103C40000895FC0181859285883EF3E09F0719F471
:103C500089E492E004C00E94791584E492E00E9415
:103C60000C1686E008950F9301E020E030E048EE66
:103C700053E009960E94C92E0F910895262F4430D3
:103C800019F06FEF7FEF02C061E070E0223091F039
:103C900028F4222349F0213051F00895243081F096
:103CA00060F0253081F008950B960C94091D0B9659
:103CB0000C948B1D0B960C94D41D0B960C94491DE3
:103CC0000B960C94621D0B960C94331EEF92FF9290
:103CD0000F931F93CF93DF93EC018B017A0168E977
:103CE00073E00E944E1A8FEF898788EA90E09983EB
:103CF000888389E1F801DE011B9601900D928A9577
:103D0000E1F7FDA2ECA2DF91CF911F910F91FF90FF
:103D1000EF9008950F931F93CF93DF93CDB7DEB746
:103D200028970FB6F894DEBF0FBECDBF8C01BC0143
:103D30006A5E7F4F2DE833E04EE050E0CE01019601
:103D40000E94D913CE0101960E94E41381E0F8018C
:103D5000858328960FB6F894DEBF0FBECDBFDF91E6
:103D6000CF911F910F910895CF93DF93EC010E94A3
:103D7000CC140E94C41487E893E00E940C160E94A1
:103D8000C8146EE0CE0146960E94A4150E94362FFC
:103D900083E0DF91CF910C941A38CF93DF93EC013D
:103DA0006CA17DA16F5F7F4F0B960E94801BCE019F
:103DB000DF91CF910C94B41ECF93DF93EC016CA1F3
:103DC0007DA16F5F7F4F0B960E94D91BCE01DF91C3
:103DD000CF910C94B41EDF92EF92FF920F931F933A
:103DE000CF93DF93CDB7DEB769970FB6F894DEBFF8
:103DF0000FBECDBF8C0189E1D82EC8010B967C0186
:103E000060E0C8010E943C1B87FD30C0873041F054
:103E1000883051F0863061F4C8010E94CD1EF0CF89
:103E2000C8010E948A1EECCFC8010E94DC1EE8CFA8
:103E3000F701DE0111969D2D01900D929A95E1F703
:103E4000682FC8010E94661A811109C0FE013196CF
:103E5000D7018D2D01900D928A95E1F7D1CF83E0A6
:103E60000E941A38C7010E94B11DCACF69960FB6C9
:103E7000F894DEBF0FBECDBFDF91CF911F910F91A0
:103E8000FF90EF90DF9008951F93CF93DF93EC01A5
:103E9000162F0E94411ACE0109960E943F2F8823B7
:103EA00011F0298501C02FEF332727FD3095812F91
:103EB00090E02817390749F11230C9F048F411236E
:103EC00089F0113011F5CE010B960E94911C1DC096
:103ED0001430B9F088F01530C1F4CE010B960E9471
:103EE000211E13C0CE010B960E948D1C0EC0CE0168
:103EF0000B960E94C41C09C0CE010B960E94B41CF4
:103F000004C0CE010B960E94BC1C80E0DF91CF91D3
:103F10001F9108950F931F93CF93DF9300D0CDB7D8
:103F2000DEB789839A830E94C41489819A810E9492
:103F30000C160E94C8140091240310912503C80197
:103F40000E94433F892B19F0C8010E940C160F9064
:103F50000F90DF91CF911F910F910C94711680916A
:103F6000940390919503892BA1F08DE10E94B409EF
:103F700065E02AE0AC01249FC001259F900D11242B
:103F80000E9405188DE60E945D1683E40E945D166E
:103F900004C087E594E00E940C160C9471168BE126
:103FA0000E94B40965E00E9405188DE60E945D1626
:103FB00086E50E945D160C94711690E0880F991F9B
:103FC00062E08A519B4F0C94D8150F931F93CF93A7
:103FD000DF9361E083E892E00E941D1C8C0165E0A4
:103FE00083E892E00E941D1CEC0184E10E94B40968
:103FF00080179107B8F4C817D907B0F49C012C1B9F
:104000003D0BC8018C1B9D0B64E670E00E94D43E02
:10401000C9010E94D43E6436710510F063E670E079
:10402000862F03C083E601C080E0DF91CF911F910E
:104030000F910895613011F40C94510F0C94152DCB
:10404000CF93DF93D82FC62F8FE18D0F0E94FF0BE8
:10405000882351F06C2F8D2F0E941A2046E06C2F80
:10406000DF91CF910C94A6188FED94E0DF91CF9162
:104070000C940C160F931F93CF93DF93C82F062F2A
:104080000E94C4148091D102882319F01092D102A9
:1040900003C081E08093D10210929D020E94380FEC
:1040A000811108C083E090E00E944910882341F00C
:1040B00080E209C080915702882321F082E403C086
:1040C0008DE601C082E690917102911102C00E94BA
:1040D0005D1680917102882331F110E0D1E00E94D9
:1040E000350F1817D0F480917202181761F0809183
:1040F00071028D2331F08091D102882321F082E07A
:1041000003C081E001C080E00E945D16D03811F04C
:10411000DD0F01C0D0E01F5FE2CF0E94350F98E0B5
:10412000981B892F01C087E00E946216D1E0DC0F46
:104130008D2F0E948A16C1110AC00E94302988233F
:1041400031F00E943629892B11F08FE301C08AE3F8
:104150000E945D16602F8C2F0E9420200E947116F5
:104160000E94C814D630C8F412E01C0F812F0E94A0
:104170008A168AE30E945D16602F8D2F0E942020F0
:10418000163059F083E08C0F0E948A168AE30E9451
:104190005D16602F812F0E942020DF91CF911F910B
:1041A0000F910C94711689E10E94B40968E00E9495
:1041B000E71880E20C945D160E94C41420917602E8
:1041C0008091860390918703223031F466E00E944B
:1041D000021884ED94E005C065E00E94021880EDAD
:1041E00094E00E940C1680E20E945D160E940D2D44
:1041F00067E00E94EB180E9471160E94C81487ECB9
:1042000094E00E940C1667E08091800390918103F6
:104210000E94EF180C9471160F931F936091DC02AB
:104220007091DD028091DE029091DF0220919C026C
:10423000222371F00E9467090091DC021091DD02D7
:104240002091DE023091DF02601B710B820B930B19
:1042500028EE33E040E050E00E94E83EC9011F91A3
:104260000F910895CF930E94AD28811110C00E9434
:104270003029882331F00E94AD2881110AC0C4E49E
:104280000BC00E94380F811106C0CEE405C0C3E404
:1042900003C0C5E401C0C2E40E949D288111C7E5A6
:1042A0008C2F0E945D1680E20E945D160E940C21F8
:1042B0000E94EB1780E2CF910C945D160E94C4140B
:1042C000809176028230D9F4CF990BC066E080915C
:1042D0008802909189020E9402188BED94E00E945E
:1042E0000C1686990EC066E0809186029091870236
:1042F0000E94021887ED94E00E940C1602C00E94F2
:10430000D32067E087E10E942E0C0E9471160E9464
:10431000C8140E94322167E082E10E942E0C0C94A6
:1043200071160E9467096093DC027093DD0280932E
:10433000DE029093DF021092D8021092D9021092FE
:10434000DA021092DB021092D4021092D50210927F
:10435000D6021092D70281E080939C0208950F93B9
:104360001F930E9467090091DC021091DD022091E9
:10437000DE023091DF02601B710B820B930B6093A6
:10438000DC027093DD028093DE029093DF021092D4
:104390009C021F910F910895CF92DF92EF92FF92AE
:1043A0000E94C4148CEB94E00E940C160E940C2115
:1043B0000E94EB170E94C81489EB94E00E940C162F
:1043C0006091D8027091D9028091DA029091DB025B
:1043D00038EEC32E33E0D32EE12CF12CA701960149
:1043E0000E94E83EC9010E94EB1786EB94E00E9410
:1043F0000C166091D4027091D5028091D6029091F2
:10440000D702A70196010E94E83EC901FF90EF90F4
:10441000DF90CF900C94EB170E94C4148DEA94E0C7
:104420000E940C160E941F2D68E00E94F3180E9443
:1044300071160E94C81483E10E94FF0B882349F083
:1044400084EA94E00E940C160E94252D68E00E94E8
:10445000F3180C9471160E94C4148CE994E00E9425
:104460000C1667E086E00E942E0C0E9471160E94D6
:10447000C81484E994E00E940C1647E061E0809142
:10448000AA039091AB030E94A6180C9471160E9487
:10449000C4148DE894E00E940C1667E082E10E944B
:1044A0002E0C0E9471160E94C81486E894E00E94A7
:1044B0000C1667E083E10E942E0C0C9471160E948A
:1044C000C41480E894E00E940C16809194039091AB
:1044D0009503892B29F065E087E00E942E0C04C02B
:1044E0008EE794E00E940C160E9471160E94C81478
:1044F0000C9471160F931F93CF93DF9300D0CDB719
:10450000DEB78B0189839A830E94CC140E94C41465
:1045100089819A810E940C160E94C814C8010F90CC
:104520000F90DF91CF911F910F910C940C168DE697
:1045300094E00E948A1F0E94C81486E694E00E94BC
:104540000C160E940C210C94EB178FE594E00C9450
:104550008A1F0E94C4140E94D3200E94AF1F0E9491
:10456000C8140E9432210C94CF1F0E94C4148EE400
:1045700094E00E940C1667E08CE10E942E0C0E94D1
:1045800071160E94C81484E494E00E940C160C94E6
:10459000CF1F0E94C4148EE394E00E940C168091F9
:1045A000940390919503892B31F00E94D10969E021
:1045B0000E94101804C08AE394E00E940C160E9426
:1045C00071160E94C81480E394E00E940C160C94AB
:1045D000AF1F60E070E08CE294E00C947A220E94BD
:1045E000E9220C94362F60E070E080E294E00E94B3
:1045F0007A2288E893E10C946E0960E070E08FE025
:1046000094E00C947A226091D4027091D50280914A
:10461000D6029091D70220E63AEE40E050E00E94A8
:10462000E83EC9010895CF93DF938091D0028F5F58
:10463000843018F48093D00202C01092D00280918E
:10464000D002833061F4C0916C00CF5FC0936C00E6
:104650000E94B12A8C1718F481E080936C00C091FD
:104660006C00C1500E94C41480916C0061E090E025
:104670000E94021880E00E945D16D0E0CC0FDD1F82
:10468000FE01E056FD4F808191810E94EB1781E091
:104690000E94621682E00E945D16FE01E655FD4F03
:1046A000808191810E94EB170E9471160E94C814AC
:1046B000FE01EC54FD4F68E0808191810E94E71873
:1046C000C254DD4F68E0888199810E94E718DF912C
:1046D000CF910C947116CF93DF93C0E0DFE061E0DF
:1046E0008D2F8C1B0E94BE148FEF0E945D1660E020
:1046F0008C2F0E94BE148FEF0E945D168AE090E01E
:104700000E946E09CF5FC03151F78AE090E0DF91DF
:10471000CF910C946E09CF93C82F0E94CC140E94A5
:10472000C4148FEE93E00E940C1662E08C2F90E090
:104730000E94021880E49FE1CF910C946E091092C0
:10474000CD021092CC021092CB021092CA0280913C
:10475000CE028093CF021092C9021092C80208952F
:10476000CF93DF9327E630E08AEA92E0C0EAD2E016
:10477000AEEBB2E064EB72E045E05DE2F90151932B
:104780009F01FC0111921192CF01199219921D9271
:104790001D92FB0111921192BF01415079F7DF91F7
:1047A000CF910895CF930E949F230E94B0230E942F
:1047B000C41464E070E083E892E00E94821C80915F
:1047C0007602823011F48EE301C080E20E945D1611
:1047D00083E892E00E94911C80917602823011F46D
:1047E0008CE301C080E20E945D16809126030E9446
:1047F000DD1F0E94C8140E94E51F8093CE0262E074
:1048000090E00E9402188CE094E00E940C1682ED69
:1048100092E00E943F2F882319F0C091D20201C07C
:10482000CFEFC0FF05C065E082E10E942E0C03C0FF
:1048300085E00E94621680E20E945D1680918302EC
:1048400084508630A8F4C1FF05C065E083E10E9472
:104850002E0C03C085E00E946216C2FF05C00E94B4
:104860001E0CCF910C948A1680E2CF910C945D16A9
:1048700066E080918402909185020E94E718CF91B2
:104880000C9471160E94E51F8093CE029091CF0286
:10489000981728F58093CF020E940C212091CA021C
:1048A0003091CB02821B930B9093CD028093CC026C
:1048B0000E940C219093CB028093CA028091CC027B
:1048C0009091CD022091C8023091C9022817390772
:1048D00010F0232B21F49093C9028093C80208950D
:1048E000CF93DF930E9442240E941E0C811128C0A6
:1048F00083E10E94B409EC0182E10E94B409C81767
:10490000D90728F49C012C1B3D0BE90102C0C81BF0
:10491000D90BC53FD140A0F024E630E08091CF0212
:10492000281B31094091C8025091C902249FC0013F
:10493000259F900D349F900D1124DF91CF91089504
:1049400029E6EBCFFF920F931F93CF93DF930E9443
:10495000B12AFF24FA94F80E0E94B42A833429F570
:104960000F2D112707FD1095F801E959FF4F80839E
:10497000000F111FE801C655DD4F6091D402709100
:10498000D5028091D6029091D70228EE33E040E024
:1049900050E00E94E83E3983288389E10E94B409EF
:1049A000F801E254FD4F918380830E94B42A84343D
:1049B00029F5CF2DDD27C7FDD095FE01E959FF4F21
:1049C0008083CC0FDD1F8E0100561D4F6091D402F5
:1049D0007091D5028091D6029091D70228EE33E0F3
:1049E00040E050E00E94E83EF8013183208389E1F5
:1049F0000E94B409CC54DD4F99838883DF91CF9115
:104A00001F910F91FF900895869B2DC0CF9B2BC0C7
:104A10000E94380F8823A1F08091D8029091D9028A
:104A2000A091DA02B091DB0280599F4FAF4FBF4F88
:104A30008093D8029093D902A093DA02B093DB025C
:104A40000E94A2240E94702490939F0280939E0251
:104A50008091D0028F5F893218F48093D00208953C
:104A60001092D00208958091D4029091D502A09125
:104A7000D602B091D70280599F4FAF4FBF4F80935E
:104A8000D4029093D502A093D602B093D702C0CFA0
:104A900081E09091D002953108F080E008950E9465
:104AA00042240E9448258823B9F00E94C4140E9421
:104AB000D32067E087E10E942E0C0E9471160E94AD
:104AC000C8140E9432218AE094E00E940C160E94D1
:104AD000AD2881111CC02FC00E94C41468E088E179
:104AE0000E942E0C88E094E00E940C1667E087E19B
:104AF0000E942E0C0E9471160E94C81468E08AE180
:104B00000E942E0C85E094E00E940C1614C0809147
:104B1000CE02833680F48091C8029091C9024597F5
:104B200030F080919E0290919F020C94EB178EEFD3
:104B300093E00C940C168091CE0264E090E00E9409
:104B400002188CEF93E00E940C160C947116909151
:104B5000D3029F5F9093D30290E0FC013197E33141
:104B6000F10570F5EE5CFF4F0C94293F0C945E212B
:104B70000C94DC200C94CC210C945F2261E007C0E3
:104B800061E083E00C943A2061E006C066E080E0DA
:104B9000F9CF66E0F6CF66E086E0F4CF0C94D2233E
:104BA0000C940C220C9447220C942B220C944F252D
:104BB0000C94B5220C94C9220C94A9220C941323B2
:104BC00008958FEF8093D20208950F931F93CF9390
:104BD000DF930E94F628009186021091870261E01F
:104BE00083E892E00E941D1CEC01C80165E070E0C2
:104BF0000E94D43E8B0140E0CE010E94492D8FE0FF
:104C00000E94752DBE01C801DF91CF911F910F91B8
:104C10000C94B82881E00C940A290E945E0A88232B
:104C200029F082E00E94B4090C94FA2D08951092A4
:104C3000E0020C94E525CF93DF930E940D260E949D
:104C4000540AEC018091E002811111C062E083E816
:104C500092E00E941D1C8C179D0748F481E0809310
:104C6000E00280918602909187020E94DC280E94D7
:104C70005E0A882381F064E083E892E00E941D1CB4
:104C80008C179D0740F481E195E090932503809374
:104C9000240381E030C00E94D609029758F1809128
:104CA0009A0390919B03892B89F08BE10E94B409B0
:104CB000EC0183E892E00E94531CD195C195D10983
:104CC0008C179D071CF48DE095E0DFCF8091940355
:104CD00090919503892B71F08DE10E94B409EC014C
:104CE00083E892E00E94711C8C179D071CF487E0FA
:104CF00095E0CBCF82E0DF91CF910895813091058F
:104D000021F09093E2028093E1027093E4026093B9
:104D1000E30208950F931F93CF93DF93C091E102B5
:104D2000D091E202CE010E9483118C010E94540AAC
:104D3000C297C817D90738F4C801DF91CF911F91E6
:104D40000F910C94651181E0DF91CF911F910F912C
:104D5000089581E00E948E290C940F100E947E29F4
:104D60000E94C50F21E08091AE039091AF03892B83
:104D700009F420E02093E50280E10C94752D1F9347
:104D8000CF93DF930E948A26182F83E00E94B409F4
:104D9000EC018091E502882329F0BE01812F0E9459
:104DA000C32D01C0812F882329F081E00E948E2924
:104DB00081E013C0BE01812F0E94482EEC010E94A9
:104DC000362920918802309189028217930721F0B9
:104DD000BE01C9010E94672982E0DF91CF911F9136
:104DE00008950F931F93CF93DF938C01EB010E94E3
:104DF0007E2640E0BE01C8010E94492DCE016AE036
:104E000070E00E94D43ECB01DF91CF911F910F91B2
:104E10000C94F72C81E00E940A290C940F100E9438
:104E2000C50F0E94F6288FE00C94752D0C94492D27
:104E30000F931F93CF93DF93C0918003D091810391
:104E4000CE010E9483118C010E94540AC2968C17D5
:104E50009D0738F4C801DF91CF911F910F910C94F9
:104E6000471181E0DF91CF911F910F9108951F931A
:104E7000CF93DF930E941827182F82E00E94B40975
:104E8000EC01BC01812F0E94C32D882329F081E011
:104E90000E940A2981E013C0BE01812F0E94482E82
:104EA000EC010E94B328209186023091870282177C
:104EB000930721F0BE01C9010E94B82882E0DF916A
:104EC000CF911F9108950E940A270E94A9260C9451
:104ED0000F10CF93DF931F92CDB7DEB79091E7020B
:104EE000913039F018F0923039F00FC00E94372716
:104EF0000CC00E94BF2609C00E941811823089F0A0
:104F000089830E94632789810CC0813051F490917C
:104F1000E602992331F082E08093E7020E94C50FF8
:104F200082E00F90DF91CF9108950E94C50F80918C
:104F3000E8029091E9020E9483110E946511882382
:104F400029F00E940F271092E70208950E94AE26D2
:104F500081E08093E5028093E70208958093E60262
:104F600008950F931F93CF93DF93EC018A019093E1
:104F7000E9028093E80240E00E941627B801CE01C2
:104F8000DF91CF911F910F910C94F12687E08093D0
:104F9000D20282E08093D3020E94133883E0809390
:104FA000EB0208950F931F93CF93DF938091EA0252
:104FB000882379F00E941E0C90918A0201E09813D8
:104FC00001C000E011E0811110E0913021F41123C3
:104FD00011F010E000E083E10E94FF0B882309F448
:104FE0005CC083E10E94B409EC0182E10E94B40933
:104FF000C817D90728F49C012C1B3D0BE90102C0FE
:10500000C81BD90BC53FD14008F447C0C1E001110E
:1050100002C087E001C083E08093D202112329F00F
:105020008091D20282508093D202CC2329F08091C9
:10503000D20281508093D202011104C0111102C02A
:10504000CC2331F081E00E941A38111107C004C04E
:1050500088E00E941A3808C0002331F08091B00324
:105060009091B103892B11F4D0E001C0D1E00E94EE
:105070002E14811102C01092EB02D11106C0C11191
:1050800004C00E942E14883051F08091EB028230CF
:1050900011F481E00AC082E008C0C0E0B8CF80917E
:1050A000EB028F5F8093EB02F0CFDF91CF911F91E6
:1050B0000F9108958FEF8093D20288E00C941A38F4
:1050C0008093EA0208951092F20208950E946709FF
:1050D00028EE33E040E050E00E94E83E2093EE02EC
:1050E0003093EF024093F0025093F10208950E9432
:1050F000670928EE33E040E050E00E94E83E60910E
:10510000EC027091ED028091EE029091EF02A0917D
:10511000F002B091F102860F971FA11DB11D8217F9
:105120009307A407B50728F081E08093F20282E09C
:1051300008951092F20281E008958091F20208959C
:105140002CE3AC01249FC001259F900D1124909366
:10515000ED028093EC020C94662881E09091F702B6
:10516000911180E008958091F5029091F6020895E2
:10517000CF93DF9320916E00223041F02091BA034B
:105180003091BB032817390708F4C9019093F60240
:105190008093F50280E00E948E0BEC016091F50295
:1051A0007091F6028FE00E948E0BBE010E941006E5
:1051B000DF91CF910C94DB0ACF93DF93EC016091E8
:1051C00080037091810380E00E948E0B9093F40223
:1051D0008093F302BE018FE00E948E0B6091F30278
:1051E0007091F402DF91CF910C94B8288091F7026E
:1051F000882379F01092F6021092F50260E070E0D8
:1052000080E090E00E94B82881E00E945A06109247
:10521000F7020895CF93C82F8091F702811111C032
:10522000CC2379F060E070E080E090E00E94B82844
:105230001092F6021092F50280E00E945A06C09386
:10524000F702CF9108951092F6021092F50260E0F5
:1052500070E080E090E00E94B82881E00C940A2978
:1052600081E09091FE02911180E008958091FC020E
:105270009091FD020895CF93DF932091FA0230912F
:10528000FB024091FC025091FD022417350711F4F6
:105290008823D1F03093FD022093FC026091F80244
:1052A0007091F90280E00E948E0BEC016091FC028B
:1052B0007091FD0283E00E948E0BBE010E948B065E
:1052C000DF91CF910C94DB0ADF91CF910895709319
:1052D000F9026093F80220916E00223041F0209193
:1052E000BC033091BD032817390708F4C901909316
:1052F000FB028093FA0281E00C943B298091FE022C
:10530000882359F060E070E080E090E00E94672917
:1053100081E00E944D061092FE020895CF93C82F9F
:105320008091FE0281110DC0CC2359F060E070E045
:1053300080E090E00E94672980E00E944D06C093C3
:10534000FE02CF91089560E070E080E090E00E945E
:10535000672981E00C948E29089580918302893019
:1053600051F09CEF980F963048F08150823048F40D
:1053700081E193E0089588E093E008958AE193E065
:1053800008958FEF92E0089581E395E09093750280
:105390008093740290918302945081E0963008F0DB
:1053A00080E00E94602861E084EF95E00E94ED11AA
:1053B00091E0813009F090E0892F08950F931F93B9
:1053C000CF93DF930E94AE2700918802109189024B
:1053D000C0918602D091870263E083E892E00E9448
:1053E0001D1CA801BE010E94B1278BE295E090939D
:1053F00075028093740260E08AEF95E0DF91CF91AF
:105400001F910F910C94ED111F93CF93DF93162FE3
:10541000C0918602D091870261E083E892E00E9409
:105420001D1C40E0BE010E94162785E295E0909386
:10543000750280937402612F8AE196E0DF91CF912B
:105440001F910C94ED111F93CF93DF93182FC091F0
:105450008602D091870261E083E892E00E941D1CE1
:1054600041E0BE010E94162725E235E03093750227
:1054700020937402612F8AE196E0DF91CF911F9112
:105480000C94ED1129E135E03093750220937402FC
:10549000682F83E396E00C94ED11CF93C82F62E060
:1054A00083E892E00E941D1C60918802709189023D
:1054B000A0918A02B0918B02E091AC03F091AD0310
:1054C000AE9F9001AF9F300DBE9F300D1124820F13
:1054D000931F0E94F1262FE135E03093750220934F
:1054E00074026C2F86E096E0CF910C94ED111F931F
:1054F000CF93DF93182FC0918802D091890262E088
:1055000083E892E00E941D1CBE010E94F1262FE15B
:1055100035E03093750220937402612F88E296E0A3
:10552000DF91CF911F910C94ED1188ED91E0909354
:1055300075028093740260E084E196E00C94ED11B2
:105540008091A2039091A3030E94A02887E395E095
:10555000909375028093740261E086E096E00C946B
:10556000ED1180912303089580916D00089581309D
:1055700019F481E00C944D2A811103C081E00C9450
:10558000772A8230B1F380E008954091230350E000
:105590002091A0033091A1034217530789F0813075
:1055A00041F42091B0033091B103232BD9F0862F21
:1055B00010C0811102C0862F10C08230C9F412C001
:1055C000813049F48091B0039091B103892B49F067
:1055D00080E00C94232A811102C00C94422A82306C
:1055E00039F460E08091A6039091A7030C94042AFB
:1055F00080E008950F931F93CF93DF93C82F81E02E
:105600008093230314E4D7E503E44091230350E09F
:105610002091A0033091A10324173507E8F10E94DF
:105620002B0F10936D008C2F0E94B72A8130A9F5A3
:10563000D0936D000E94A02A813079F50E949F23AB
:105640000E942B0F00936D004091230350E02091A6
:10565000A0033091A1034217530711F061E001C08C
:1056600060E08C2F0E94C52A8130B9F4D0936D0080
:105670004091230350E02091A0033091A1034217F1
:10568000530721F00E94A02A813039F4809123032E
:105690008F5F80932303B9CF81E0DF91CF911F917A
:1056A0000F910895CF93C82F809326032DE335E003
:1056B00030932503209324038F3030F4E82FF0E05B
:1056C000E455FF4F808101C080E080936E000E940E
:1056D0001C390E94FD0A0E94C4298823F1F184E04C
:1056E0000E941A388C2F90E08F309105A0F5FC01B4
:1056F000EB5BFF4F0C94293F60E08091A6039091F3
:10570000A7030AC00E94952A28C080E00E944D2A63
:1057100024C060E085E090E00E94042A1EC060E0A2
:1057200080E002C060E081E00E94DE2916C080E0D7
:105730000E94422A12C080E00E94772A0EC081E0B7
:1057400003C080E001C082E00E94FA2A06C080E027
:105750000E94232A02C00E94EF220E940C0BCF91CC
:105760000C942C390F931F93CF93DF93EC010E947D
:10577000F21B0E94AD298C0160E0C8010E943C1B15
:1057800087FD29C090918302E82FFF27E7FDF09560
:10579000993019F4E35AFA4F0FC08CEF890F863015
:1057A00018F4EC58FA4F08C09150923018F4E15BAD
:1057B000FA4F02C0E25CFA4F84918F3049F4BE0187
:1057C00083E892E00E94DF1CCE010E94001CD1CF32
:1057D0000E94522BD1CFDF91CF911F910F9108954D
:1057E0006DE775E08AE193E00E944E1A63E575E08B
:1057F00081E193E00E944E1A64E675E088E093E050
:105800000E944E1A63E475E08FEF92E00C944E1AFA
:10581000FC01428153814115510591F0A081B18174
:10582000B7FF03C0B195A195B10928EE33E00E94FE
:10583000B13E9A0140E050E00E94E83EC90108955F
:1058400080E090E008950F931F93CF93DF9300D0F3
:1058500000D0CDB7DEB78C01862FF801628173814D
:105860000E942A0B9C838B83F801808191819A830B
:105870008983CE0101960E94082C0F900F900F9003
:105880000F90DF91CF911F910F9108950F93FC011D
:10589000CB01002341F04617570708F4CA016417EB
:1058A000750748F407C06417750708F4CA0146175E
:1058B000570708F4BA019783868391838083138204
:1058C00012821582148233872287681B790B7187B5
:1058D00060870F910895DF92EF92FF920F931F93CD
:1058E000CF93DF93EC012A813B812417350720F405
:1058F000FA01E21BF30B03C0F901E41BF50B8C81E9
:105900009D81969587958E179F0770F5888199815F
:105910008617970720F4FB01E81BF90B03C0FC0175
:10592000E61BF70BEF2B01F12417350738F48A013A
:10593000021B130B7B01E81AF90A06C07C01E61A68
:10594000F70A8901041B150BC7010E94712ED82E7E
:10595000888599850E94712ED81206C01D830C83FC
:10596000F986E8861B870A87DF91CF911F910F91F7
:10597000FF90EF90DF9008950F931F93CF93DF93E5
:10598000EC018B019A01A885B9850E94B13E2A8558
:105990003B8540E050E00E940A3FC801A0E0B0E033
:1059A00082179307A407B5071CF41F821E8204C048
:1059B000021B130B1F830E83DF91CF911F910F9159
:1059C0000895EF92FF920F931F93CF93DF93EC0113
:1059D0008B017A010E946B2CA701B801CE01DF91E7
:1059E000CF911F910F91FF90EF900C94BC2C8233BC
:1059F000910510F482E390E09093850380938403F3
:105A0000089580912703813029F480918403909137
:105A10008503089580E090E008956091820370917D
:105A20008303809129030C942A0B2CE0829FC001F0
:105A30001124609129038C5C9C4F0C94232C609161
:105A400029038CE793E00C94232CCF93DF9300D0B1
:105A500000D0CDB7DEB782E10E94B4099A83898372
:105A600083E10E94B40929813A81281B390B3A83CA
:105A7000298387E10E94B4099C838B83CE01019620
:105A80000E94082C0F900F900F900F90DF91CF91F4
:105A900008959B018130910531F0909381038093AB
:105AA0008003409328033093830320938203609103
:105AB000A6037091A703C9010E94D43E7093850389
:105AC000609384032233310530F482E390E09093B5
:105AD0008303809382036233710530F482E390E0A4
